:020000040800F2
:10000000100F00207102000831380008392D000857
:10001000FF350008250B00080F59000800000000FC
:10002000000000000000000000000000F948000887
:10003000411E00080000000085400008554B0008E4
:100040008B0200088B0200088B0200088B0200085C
:100050008B0200088B0200088B0200088B0200084C
:100060008B0200088B0200088B0200088B0200083C
:100070008B0200088B0200088B0200088B0200082C
:100080008B0200088B0200088B020008850C000818
:10009000490C00088B0200088B0200088B02000844
:1000A0008B0200088B0200088B0200088B020008FC
:1000B000E34C0008FD4C0008154D00088B020008B9
:1000C0008B0200088B0200088B0200088B020008DC
:1000D0008B02000841520008C9520008BD550008B3
:1000E000451E00088B0200088B0200088B020008E6
:1000F0008B0200088B0200088B0200088B020008AC
:100100008B0200088B0200082D4D00088B020008AE
:100110008B0200088B0200088B0200088B0200088B
:100120008B0200088B0200088B0200088B0200087B
:100130008B0200088B0200088B0200088B0200086B
:100140008B0200088B0200088B0200088B0200085B
:100150008B0200088B0200088B0200088B0200084B
:100160008B0200088B0200088B0200088B0200083B
:100170008B0200088B0200088B0200088B0200082B
:100180008B0200088B02000800F002F800F061F812
:100190000AA090E8000C82448344AAF10107DA45E2
:1001A00001D100F056F8AFF2090EBAE80F0013F0D3
:1001B000010F18BFFB1A43F0010318478CC8000059
:1001C000ACC800000A444FF0000C10F8013B13F0DB
:1001D000070408BF10F8014B1D1108BF10F8015BA0
:1001E000641E05D010F8016B641E01F8016BF9D193
:1001F00013F0080F1EBF10F8014BAD1C0C1B09D1EA
:100200006D1E58BF01F801CBFAD505E014F8016B5B
:1002100001F8016B6D1EF9D59142D6D370470000ED
:100220000023002400250026103A28BF78C1FBD8FF
:10023000520728BF30C148BF0B607047642900F0E7
:100240009D80002070471FB50AF03FFF1FBD10B50D
:1002500010BD00F063FA1146FFF7F5FF08F0E4FA6D
:1002600000F081FA03B4FFF7F2FF03BC06F04CFF85
:100270000948804709480047FEE7FEE7FEE7FEE73A
:10028000FEE7FEE7FEE7FEE7FEE7FEE70448054976
:10029000054A064B70470000594B000889010008C9
:1002A00010090020100F0020100B0020100B002060
:1002B000704710B54C1084EA530404D54042C1F194
:1002C000000138BF491E1B4204D55242C3F100034E
:1002D00038BF5B1E00F0E8F814F0804F04D04042B5
:1002E000C1F1000138BF491E14F0004F04D0524242
:1002F000C3F1000338BF5B1E10BD00000FB40449FA
:1003000010B503AA029800F0ABF910BC5DF814FB1D
:10031000940000202DE9F0410E46044600202062A2
:100320002046E168884730B3252805D0D4E901216B
:100330009047206A401CF2E7E16820460027884782
:10034000050018D0A5F14100192802D820354FF436
:1003500000673246294620462760FFF76FFF40B10D
:10036000012804D0F61D26F007060836D8E7361D0A
:10037000D6E72846DAE7206ABDE8F0812DE9F041AA
:100380000646002410687529314616A510D0AFF333
:100390000080002802DA404213A507E031688A078E
:1003A00001D512A502E0490704D511A5012401E0F9
:1003B000AFF3008000210A2206F1240709E0B0FB18
:1003C000F2FCB0FBF2F302FB1C003030785418460C
:1003D000491C0028F3D123462A463046BDE8F041A7
:1003E00000F0E4B8000000002D0000002B00000029
:1003F0002000000040EA010310B59B070FD1042A3A
:100400000DD310C808C9121F9C42F8D020BA19BADF
:10041000884201D9012010BD4FF0FF3010BD1AB144
:10042000D30703D0521C07E0002010BD10F8013B99
:1004300011F8014B1B1B07D110F8013B11F8014BC0
:100440001B1B01D1921EF1D1184610BD02F0FF0313
:1004500043EA032242EA024200F002B84FF00002EF
:100460000429C0F0128010F0030C00F00D81CCF1D3
:10047000040CBCF1020F18BF00F8012BA8BF20F834
:10048000022BA1EB0C0100F0FFB85FEAC17C24BF96
:1004900000F8012B00F8012B48BF00F8012B704732
:1004A000704770477047704753EA020C00F069804C
:1004B0002DE9F04B4FF00006002B1FBFB3FA83F578
:1004C00003FA05F424FA05F65E4012BF1643B2FAA9
:1004D00082F502FA05F4C5F120051EBF22FA05FCDB
:1004E00044EA0C04203556EA044C4FEA144418BF81
:1004F000641C4FF000084FF00009904271EB030CB0
:1005000039D3002919BFB1FA81F701FA07F6B0FA19
:1005100080F700FA07F6C7F120071EBF20FA07FC94
:1005200046EA0C062037B6FBF4FCA7EB0507103FA4
:1005300007F01F0BCBF120060CFA0BFB2CFA06F68A
:1005400044BFB3460026202FA4BF5E464FF0000BE9
:100550005BEA060C08BF4FF0010B19EB0B09ABFB74
:10056000027C48EB0608C01B06FB02CC0BFB03CC4D
:1005700071EB0C01C1E70B46024641464846BDE817
:10058000F08B13B54FF000004FF00001AFF3008087
:10059000BDE81C40704710B500F09CF8006810BD25
:1005A00010B5044600F096F8046010BD2DE9F04740
:1005B0000D4699469246044600F1240801688806D3
:1005C00004D5E06921F01001216000E00120A8427B
:1005D00001DD471B00E00027A1697A1902EB090041
:1005E000081AA0612078C00602D42046AFF300802C
:1005F000002608E0D4E901211AF806009047206A95
:10060000401C761C20624E45F4DB2078C0060AD5DB
:100610002046AFF3008006E0D4E901213020904766
:10062000206A401C2062381EA7F10107F4DC07E0B5
:10063000D4E9012118F805009047206A401C206287
:10064000281EA5F10105F3DC2046AFF300802078D9
:10065000000602D50220BDE8F0870120FBE700007C
:10066000074B70B50D467B4400F03DF80446284624
:1006700000F04CF810B14FF0FF3070BD204670BD57
:10068000FF7900004FF0000200B5134694469646ED
:10069000203922BFA0E80C50A0E80C50B1F1200195
:1006A000BFF4F7AF090728BFA0E80C5048BF0CC043
:1006B0005DF804EB890028BF40F8042B08BF7047A1
:1006C00048BF20F8022B11F0804F18BF00F8012B13
:1006D0007047000000487047B008002001694A1CBC
:1006E00002610878704700B58FB0CDE90131002173
:1006F000059105497944CDE9031011466846FFF795
:1007000009FE0FB000BD0000E5FFFFFF007B00F019
:100710008000704700487047B00800207546FFF71A
:10072000F9FFAE4605006946534620F007008546AE
:1007300018B020B5FFF7AAFDBDE820404FF0000635
:100740004FF000074FF000084FF0000B21F00701B9
:10075000AC46ACE8C009ACE8C009ACE8C009ACE8FC
:10076000C0098D46704710B50446AFF3008020469F
:10077000BDE81040FFF776BD21B1826842F001026A
:10078000826003E0826822F001028260704700000C
:100790000021084A1168084A1140D0E900231A4391
:1007A00083681A43C3681A431143044AC2F8041306
:1007B0007047000004230140E030FCFF00200140AE
:1007C0000146C86C80B270470246002013680B4097
:1007D0000BB1012000E000207047000030B5024658
:1007E000002000235068104C20400D790C6844EA2A
:1007F00005242043506090680C4C2040D1E90354FC
:100800002C438D682C434D7944EA45042043906085
:10081000D06A20F470000C7D641EE4B2234340EAE9
:100820000350D06230BD0000FFFEFFFCFDF7FFC0AB
:10083000F0B504460D4600200021092D11DDE068C9
:10084000A5F10A0606EB4607072606FA07F18843D4
:10085000A5F10A0606EB460603FA06F10843E06036
:100860000CE0206905EB4507072606FA07F18843E7
:1008700005EB450603FA06F108432061072A0FDA63
:10088000606B561E06EB86071F2606FA07F18843A3
:10089000561E06EB860605FA06F10843606322E061
:1008A0000D2A0FDA206BD61F06EB86071F2606FAE5
:1008B00007F18843D61F06EB860605FA06F10843C2
:1008C000206310E0E06AA2F10D0606EB86071F2602
:1008D00006FA07F18843A2F10D0606EB860605FA33
:1008E00006F10843E062F0BD816841F0804181601B
:1008F0007047000070B586B048480068A0F25640C6
:100900004000032190FBF1F6642E00DD642644488C
:1009100090ED000ADFED430A20EE200ABDEEC00A8A
:1009200010EE104A002C00DA64423F4890ED000AB5
:10093000DFED3C0A20EE200ABDEEC00A10EE105A90
:10094000002D00DA6D4239480078012801D10024D9
:1009500000253748007808B9012000E0002034491C
:10096000087034480078012830D10020324A92EDD6
:10097000000ABDEEC00A314AD2ED000AFDEEE00ADF
:10098000CDED020A8DED030A049005902C4890ED00
:10099000000ABDEEC00A2B48D0ED000AFDEEE00AC9
:1009A000CDED000A8DED010A274890ED000ABDEE5D
:1009B000C00A10EE103A254802682548016825A0B3
:1009C000FFF79CFC00201B49087024E018480078C1
:1009D00040B90020EAB2E1B23346009025A0FFF70B
:1009E0008DFC18E02748009690ED000ABDEEC00A85
:1009F00010EE103A244890ED000ABDEEC00A10EE49
:100A0000102A224890ED000ABDEEC00A10EE101A1E
:100A10001FA0FFF773FC06B070BD00005800002057
:100A2000680000203333333F6C0000206200002058
:100A3000500200209A000020840000208000002046
:100A40007C00002078000020740000208C00002032
:100A5000880000207B4325643A25643A25643A25C2
:100A6000643A25643A25643A25643A25643A256453
:100A70007D2400007B4125643A25643A25643A25AB
:100A8000647D240014010020100100200C010020CE
:100A90007B4225643A25643A25643A25647D240026
:100AA00000B58DB00121084603F0CEFC01210802FB
:100AB00003F0FAFC2020059003208DF81800002098
:100AC0008DF81B0005A9154801F0E0FD0121080281
:100AD00003F0FAFC00214FF4807003F0F5FC0020D5
:100AE0000190049003904FF48030029001A8FFF72A
:100AF0004FFE002007908DF820008DF8210009900E
:100B00000B9001208DF8300007A90548FFF766FE1D
:100B100001210348FFF730FE0DB000BD0000024088
:100B20000020014000BFFEE700B58BB0012102208C
:100B300003F08AFC0121480603F096FC09220821F3
:100B40003F4801F0EBFD092211463D4801F0E6FD6A
:100B50004FF44070029002208DF80C0000208DF8B8
:100B60000E0003208DF80D0001208DF80F0002A962
:100B7000334801F08BFD14208DF8040002208DF81D
:100B8000050001208DF806008DF8070001A802F08D
:100B900051FE13208DF8040001208DF805008DF81A
:100BA00006008DF8070001A802F044FE254800F079
:100BB000EBF808A800F0BCFC00208DF826008DF8AA
:100BC00027008DF828008DF829008DF82A000120D3
:100BD0008DF82B0000208DF822008DF823000820CE
:100BE0008DF8240003208DF82500ADF8200008A919
:100BF000144800F002FA00208DF81A008DF81B004E
:100C000001208DF81C000020ADF81000ADF8120096
:100C1000ADF81400ADF81600ADF8180001208DF8FD
:100C20001D0004A800F0CCF801220221054800F0C4
:100C3000DBF901221146034800F0D6F90BB000BDE4
:100C4000000402400064004000B585B002210B485A
:100C500000F03AF978B10421084800F041F8084959
:100C6000064800F021F86A460021044800F0E8FB3D
:100C7000684600F001FD05B000BD000000640040C2
:100C80000800003210B5052005490870012105480B
:100C900000F01AF918B10121024800F021F810BD46
:100CA000D80000200064004000220C4B994202D181
:100CB0000023836111E0C1F3130201F000730BB153
:100CC000C2600AE001F080630BB1026105E001F04F
:100CD00000630BB1826000E0426070477000F0304A
:100CE000B1F5007F3AD00FDC202928D006DC01299D
:100CF0001CD004291DD0082940D11DE0402921D055
:100D0000B1F5807F3AD126E0B1F5004F31D006DC55
:100D1000B1F5806F25D0B1F5006F2FD124E0B1F58A
:100D2000803F12D0B1F5003F28D111E0154A826012
:100D300025E00822C26022E01022C2601FE00822E3
:100D400002611CE01022026119E00822426016E0F4
:100D50001022426013E00422426010E0042242604C
:100D60000DE0042242600AE0002282610422426017
:100D700005E0002282610422426000E000BF00BF63
:100D8000704700000101010010B504460B48844281
:100D900009D10121480603F077FB00214FF00070D4
:100DA00003F072FB08E00121880603F06DFB0021CF
:100DB0004FF0806003F068FB10BD0000006400404D
:100DC00010B50021837A012202FA03F13D4A12682C
:100DD00042F001023B4B1A603A4A1C3212688A43C5
:100DE000384B1C331A60027BCAB9364A0C3212687F
:100DF0008A43344B0C331A604288C38842EA034367
:100E0000304A4032847A42F834300288838842EA99
:100E100003432C4A4032847A02EBC4025360027BC3
:100E2000012A19D1274A0C3212680A43254B0C3388
:100E30001A604288038842EA0343224A4032847A95
:100E400042F83430C288838842EA03431D4A403264
:100E5000847A02EBC4025360C27A3AB9194A121D6D
:100E600012688A43174B1B1D1A6006E0154A121DB3
:100E700012680A43134B1B1D1A60028932B9114ACA
:100E8000143212688A430F4B14331A600289012A04
:100E900006D10C4A143212680A430A4B14331A6002
:100EA000427B012A06D1074A1C3212680A43054BCD
:100EB0001C331A60034A126822F00102014B1A60C7
:100EC00010BD00000066004070B504460D460026C7
:100ED00060692840002871D0B5F5807F5CD010DCB7
:100EE000082D35D006DC012D20D0022D24D0042D74
:100EF00072D127E0102D31D0202D35D0402D6BD16F
:100F000038E0B5F5004F60D009DCB5F5007F49D079
:100F1000B5F5806F4CD0B5F5006F5DD14FE0B5F5FC
:100F2000803F2DD0B5F5003F56D12FE0A0682D4968
:100F300000F0F8FB064651E0E068032100F0F2FB08
:100F400006464BE0E068082100F0ECFB064645E071
:100F5000E068102100F0E6FB06463FE0206903212F
:100F600000F0E0FB064639E02069082100F0DAFBDA
:100F7000064633E02069102100F0D4FB06462DE040
:100F80006068082100F0CEFB064627E0606810216B
:100F900000F0C8FB064621E0A069012100F0C2FB79
:100FA00006461BE0A069022100F0BCFB064615E0E6
:100FB000A069042100F0B6FB06460FE00FE0A0692F
:100FC000702100F0AFFB064608E06068042100F0E5
:100FD000A9FB064602E0FFE7002600BF00E000266E
:100FE000304670BD010101001AB143690B434361F2
:100FF00002E043698B434361704730B502460020ED
:101000000023146824F002041460146844F00104FE
:10101000146000E05B1C546804F001041CB94FF636
:10102000FF74A342F6D1546804F001040CB9002007
:101030006CE08C79012C04D1146844F080041460B5
:1010400003E0146824F080041460CC79012C04D1EE
:10105000146844F04004146003E0146824F0400471
:1010600014600C7A012C04D1146844F0200414603C
:1010700003E0146824F0200414604C7A012C04D19D
:10108000146844F01004146003E0146824F01004A1
:1010900014608C7A012C04D1146844F008041460A4
:1010A00003E0146824F008041460CC7A012C04D105
:1010B000146844F00404146003E0146824F0040489
:1010C00014608C78A407CD7844EA05640D7944EA6D
:1010D00005444D7944EA05540D886D1E2C43D461B6
:1010E000146824F001041460002300E05B1C5468C1
:1010F00004F001041CB14FF6FF74A342F6D154680A
:1011000004F001040CB1002000E0012030BD00001B
:101110002DE9F0411424B8480078002873D1B7486D
:101120000078012803D0B648007801286CD1B54872
:101130000078012853D1B348C07900F0040008B901
:10114000012101E04FF0FF31AE48C07900F002000C
:1011500008B9012201E04FF0FF32AA48C07900F03F
:10116000010008B9012301E04FF0FF33A54890F8D2
:1011700002C040780CEB0020484300EE100AB8EEA5
:10118000C00AA14880ED000A9E4890F804C0C078CB
:101190000CEB0020504300EE100AB8EEC00A9B484A
:1011A00080ED000A974890F806C040790CEB0020CB
:1011B000584300EE100AB8EEC00A954880ED000AC8
:1011C00090ED001A9148D0ED000A8F4890ED000A8A
:1011D00002F018F99FED8F0A8F4880ED000A8948C8
:1011E0000078022843D18748C07900F0080008B988
:1011F000012101E04FF0FF318248C07900F0040086
:1012000018B9012203E098E032E04FF0FF327D4848
:10121000C07900F0020008B9012301E04FF0FF336C
:101220007848C07900F0010010B94FF0010801E0E2
:101230004FF0FF38734840784843DFF8E0C1CCF8FE
:101240000000704880785043DFF8D4C1CCF800002B
:101250006C48C0785843DFF8CCC1CCF8000069482E
:10126000007900FB08F0DFF8C0C1CCF8000053E0C3
:101270006E48007801284FD16D480068A0F18006C3
:101280006C480068A0F180076B480068A0F18005F9
:101290006042864202DDA64200DA002660428742B2
:1012A00002DDA74200DA00276042854202DDA54246
:1012B00000DA00256148006870434FF0C80C90FBCD
:1012C000FCF000EE100AB8EEC00A4F4880ED000AAC
:1012D0007842DFF868C1DCF800C000FB0CF04FF08A
:1012E000C80C90FBFCF000EE100AB8EEC00A4748AC
:1012F00080ED000A6842DFF844C1DCF800C000FB62
:101300000CF04FF0C80C90FBFCF000EE100AB8EEA9
:10131000C00A3F4880ED000A3D4890ED001A3B4866
:10132000D0ED000A384890ED000A02F06BF89FED0E
:10133000390A394880ED000A5BE02F48007801281F
:1013400057D130480078012853D12E48C07900F099
:10135000040008B9012101E04FF0FF312948C079AC
:1013600000F0020008B9012201E04FF0FF322548E9
:10137000C07900F0010008B9012301E04FF0FF330C
:10138000204890F802C040780CEB0020484300EE63
:10139000100AB8EEC00A1C4880ED000A194890F8FF
:1013A00004C0C0780CEB0020504300EE100AB8EEE9
:1013B000C00A164880ED000A124890F806C040792D
:1013C0000CEB0020584300EE100AB8EEC00A10489B
:1013D00080ED000A90ED001A0C48D0ED000A0A4892
:1013E00090ED000A02F00EF89FED0A0A0A4880ED1F
:1013F000000ABDE8F081000062000020B800002073
:1014000064010020B9000020680000206C0000206A
:101410007000002000000000AC0100204800002007
:101420004C000020500000205400002063000020E9
:101430002C01002030010020340100208800002011
:1014400010B500F5D87303EB01131B6803F0040318
:101450001372137A53B900F5D87303EB01131B68A9
:1014600040F2FF7404EA5353136009E000F5D873A7
:1014700003EB01131B686FF0604404EAD30353606D
:1014800000F5D87303EB01131B6803F002035372DA
:1014900000F5D87303EB01135B6803F00F0393723D
:1014A00000F5D87303EB01135B681B0AD37400F5D6
:1014B000D87303EB01139B68D37200F5D87303EB69
:1014C00001139B681C0A147300F5D87303EB011316
:1014D0009B681C0C547300F5D87303EB01139B68D5
:1014E0001B0E937300F5D87303EB0113DB68D37302
:1014F00000F5D87303EB0113DB681C0A147400F5C4
:10150000D87303EB0113DB681C0C547400F5D8731B
:1015100003EB0113DB681B0E937421B9C36843F01E
:101520002003C36003E0036943F02003036110BD9F
:1015300000218171C171017241728172C172817029
:10154000C1700321017102214171012101807047A5
:1015500010B502460020936803F08063B3F1806FFA
:1015600000D110E0936803F00063B3F1006F01D184
:10157000012008E0936803F08053B3F1805F01D14C
:10158000022000E00420042874D002F5C07303EBAD
:1015900000131B6803F0010402F5C07303EB001392
:1015A0001C600B7A7BB94B7A0C8843EA445302F5F2
:1015B000C07404EB00142468234302F5C07404EBE8
:1015C0000014236010E00B7A4C6843EAC4034C7AA1
:1015D000234302F5C07404EB00142468234302F58E
:1015E000C07404EB001423608B7A03F00F038B723A
:1015F00002F5C07303EB00135B6823F00F0402F5E0
:10160000C07303EB00135C6002F5C07303EB0013BF
:101610005B688C7A234302F5C07404EB00146360AA
:101620008B7B1C064B7B44EA03440B7B44EA03237D
:10163000CC7A234302F5C07404EB0014A3608B7CC6
:101640001C064B7C44EA03440B7C44EA0323CC7B1A
:10165000234302F5C07404EB0014E36002F5C07389
:1016600003EB00131B6843F0010402F5C07303EBA6
:1016700000131C6010BD000010B50446244800682B
:10168000401C234908602068A0F2012030B10128E5
:1016900012D002281ED0032838D129E01C48006847
:1016A000322804D821461B4801F05BF803E02146AC
:1016B000184800F0D7FD29E015480068322804D802
:1016C0002146154801F04DF803E02146124800F08C
:1016D000C9FD1BE00E480068322804D821460F4897
:1016E00001F03FF803E021460C4800F0BBFD0DE09F
:1016F00007480068322804D82146094801F031F82B
:1017000003E02146064800F0ADFD00BF00BF10BD5C
:10171000D4000020580300209C030020E003002098
:10172000240400200246002002EA01030BB101203C
:1017300000E00020704700002DE9F0412DED108BF6
:101740009B48006809F050FC41EC1B0B994890ED58
:10175000000B53EC102B51EC1B0B09F05BFB41EC25
:10176000180B9548006809F03FFC41EC1B0B9348AF
:1017700090ED000B53EC102B51EC1B0B09F04AFBC6
:1017800041EC190B8E48006809F02EFC41EC1B0B54
:101790008C4890ED000B53EC102B51EC1B0B09F017
:1017A00039FB41EC1A0B9FED880B53EC102B51ECDD
:1017B000180B09F051F811D19FED830B53EC102B4E
:1017C00051EC190B09F048F808D19FED7F0B53EC51
:1017D000102B51EC1A0B09F03FF82CD053EC1A2BBC
:1017E00051EC1A0B09F00AF941EC1C0B53EC192BC4
:1017F00051EC190B09F002F941EC1E0B53EC182BBC
:1018000051EC180B09F0FAF841EC1F0B53EC1E2BAE
:1018100008F00EFE41EC1D0B53EC1C2B08F008FEEB
:1018200041EC1B0BB0EE4B0AF0EE6B0A05F054FBDB
:10183000674880ED000B9FED640B53EC102B51ECCF
:10184000180B09F009F811D19FED5F0B53EC102B29
:1018500051EC190B09F000F808D19FED5B0B53EC2C
:10186000102B51EC1A0B08F0F7FF19D051EC1A0BA2
:1018700008F0ACFD0BEE100A51EC190B08F0A6FDB8
:101880000BEE900A51EC180B08F0A0FD0CEE100ABC
:10189000B0EE4B1AF0EE6B0AB0EE4C0A01F0EEFD22
:1018A0004C48006808F028F84B49096800FB01F82B
:1018B000404609F053F841EC1C0B454890ED000BF5
:1018C00053EC102B51EC1C0B08F06EFE41EC1B0B83
:1018D00008F0FEFF04464148006808F00DF83E4954
:1018E000096800FB01F8404609F038F841EC1C0B90
:1018F000374890ED000B53EC102B51EC1C0B08F00B
:1019000053FE41EC1B0B08F0E3FF0546344800682A
:1019100007F0F2FF3049096800FB01F8404609F082
:101920001DF841EC1C0B2A4890ED000B53EC102BDA
:1019300051EC1C0B08F038FE41EC1B0B08F0C8FF03
:1019400006462848006807F0D7FF2349096800FBCE
:1019500001F8404609F002F841EC1C0B1C4890EDE0
:10196000000B53EC102B51EC1C0B08F01DFE41EC4E
:101970001B0B08F0ADFF074623462A46314604F00C
:101980000BF80B48006809F02FFB0A4A03C20A480B
:10199000006809F029FB094A03C20948006809F0F8
:1019A00023FB084A03C2BDEC108BBDE8F0810000A8
:1019B00068000020280200206C0000203002002077
:1019C000700000203802002000000000000000002D
:1019D0004002002034000020880000203000002059
:1019E0002C0000202800002038B5002000906B4615
:1019F00001227521682006F071FE2DA0FEF77EFC05
:101A00009DF80000682810D000BFBFF34F8F314809
:101A1000006800F4E06030490843001D2D4908606B
:101A2000BFF34F8F00BF00BFFEE707F0B3F80028F9
:101A30003CD1782007F0B8FE10B91DA0FEF75EFC7F
:101A4000782006F08DFF10B924A0FEF757FCC820BF
:101A500007F05CFE10B92BA0FEF750FC05F084FEE9
:101A600010B932A0FEF74AFC3D4806F0A2FE04463B
:101A700006F0D4F810B93BA0FEF740FC40F273101A
:101A800005F01AFD10B941A0FEF738FCC82005F09A
:101A9000F5FF10B947A0FEF731FC08F099FA0120D4
:101AA00007F030FD10B94CA0FEF728FC38BD00004F
:101AB0006D70755F7365745F73656E736F722063AD
:101AC0006F6D706C657465202E2E2E2E2E2E0D0AD5
:101AD000000000000CED00E00000FA056D70755F7D
:101AE000636F6E6669677572655F6669666F2063AE
:101AF0006F6D706C657465202E2E2E2E2E2E0D0AA5
:101B0000000000006D70755F7365745F73616D70C8
:101B10006C655F7261746520636F6D706C65746570
:101B2000202E2E2E2E2E2E0D0A000000646D705FCA
:101B30006C6F61645F6D6F74696F6E5F64726976FC
:101B400065725F6669726D7761726520636F6D7033
:101B50006C657465202E2E2E2E2E2E0D0A00000090
:101B60001C010020646D705F7365745F6F7269653E
:101B70006E746174696F6E20636F6D706C657465EF
:101B8000202E2E2E2E2E2E0D0A000000646D705F6A
:101B9000656E61626C655F66656174757265206310
:101BA0006F6D706C657465202E2E2E2E2E2E0D0AF4
:101BB00000000000646D705F7365745F6669666F36
:101BC0005F7261746520636F6D706C657465202E43
:101BD0002E2E2E2E2E0D0A006D70755F7365745FAC
:101BE000646D705F737461746520636F6D706C6594
:101BF0007465202E2E2E2E2E2E0D0A0010B5334881
:101C0000007800BB0120324991ED000AB8EEC00A0D
:101C100000F0C2F802202F4991ED000AB8EEC00A88
:101C200000F0BAF803202C4991ED000AB8EEC00A82
:101C300000F0B2F80420294991ED000AB8EEC00A7C
:101C400000F0AAF81FE00120254991ED000AB8EE46
:101C5000C00A00F0A1F80220224991ED000AB8EE76
:101C6000C00A00F099F803201F4991ED000AB8EE70
:101C7000C00A00F091F804201C4991ED000AB8EE6A
:101C8000C00A00F089F8042000F03AF818490870FA
:101C900000201849087011E000BF1748008800F0C4
:101CA00040000028F9D0154812490978405C1249D3
:101CB000888010480078401C0E4908700D48007854
:101CC0000B4909788842E7DB10BD00006200002064
:101CD000080000200C00002010000020140000204C
:101CE000180000201C0000202000002024000020FC
:101CF0004902002048020020001001408408002012
:101D000001460A2900DC09B9002070472420214A35
:101D100010700B293CD2DFE801F03B060B10151ABE
:101D20001F24292F350005201A4A50710620ECE7A0
:101D30000920184A50720A20E7E70D20154A50730F
:101D40000E20E2E71120134A50741220DDE715201F
:101D5000104A50751620D8E719200E4A50761A20DE
:101D6000D3E71D200B4A50771E20CEE72120094AD9
:101D700082F821002220C8E72520064A82F82500A3
:101D80002620C2E72920034A82F829002A20BCE73E
:101D90000020BAE78408002011B52DED020B04469F
:101DA0000A2C00DC04B91EBD0B2C43D2DFE804F082
:101DB00042060C12181E242A30363C0001221F490C
:101DC000684600F055FC35E005221C49684600F0E5
:101DD0004FFC2FE009221949684600F049FC29E030
:101DE0000D221649684600F043FC23E011221349F6
:101DF000684600F03DFC1DE015221049684600F0E1
:101E000037FC17E019220D49684600F031FC11E05B
:101E10001D220A49684600F02BFC0BE021220749ED
:101E2000684600F025FC05E025220449684600F0DC
:101E30001FFC00BF00BF00BFB5E700008408002002
:101E40007047000010B5BD48006800287DD14FF4F0
:101E50000040BB490860BB48007808B9012000E099
:101E60000020B8490870B848007801280BD1B7485D
:101E70000078401CC0B2B54908700A2803D1002080
:101E80000870B1490870AF480078012815D1B048F2
:101E9000007860B9AF48007848B9AF4800780128A9
:101EA00005D1AE48AE490A6802604968416002F057
:101EB000A5FB01F095FA002010BD01F091FA022077
:101EC00002F0E8FCA7490860A748006809680844D0
:101ED000A5490860032002F0DDFCA4490860A4487D
:101EE000006809680844A2490860042002F0D2FC96
:101EF0004042A0490860A0480068096808449E491B
:101F00000860052002F0C6FC40429C4908609C48DD
:101F10000068096808449A49086002F06FFB642071
:101F200001F004FB00F0C6FE00EE100AB8EEC00A95
:101F30009448D0ED000A30EE200A80ED000A924865
:101F400090ED000AF7EE000A00E0BBE030EE200A58
:101F500080ED000ADFED8D0AB4EE600AF1EE10FAB2
:101F600015D1884890ED000ADFED880A80EE201A2E
:101F7000BDEEC10A864880ED000A9FED860A8148C1
:101F800080ED000A9FED830A7F4880ED000A8248B9
:101F90000068042807D101206E49087000207F499D
:101FA00008706D4908707D480078012807D06A489C
:101FB0000078012803D067480078012801D1FFF795
:101FC000A7F877480068002806DD754800680F28E4
:101FD00002DA0F20724908606D48006803F00CF9BE
:101FE00000286FD16F48007868BB6C48007848B90A
:101FF0005948007830B95748007818B969480078CE
:1020000000F0D4FB684801685648006801F0A8F861
:1020100066490860664801685448006801F0EAF8BB
:1020200064490860644801685248006801F02CF96E
:1020300062490860624801685048006801F06EF922
:10204000604908606AE05548007880B942480078E5
:1020500068B94048007850B95B48007818B905F075
:1020600025F95A4908704F48007800F09FFB4E4808
:1020700001683D48006802F007F800124B4908600B
:102080004B4801683A48006802F076F80012494966
:102090000860494801683848006802F0E5F8001215
:1020A00046490860464801683548006802F054F91E
:1020B00000124449086029480078022803D0FFF73D
:1020C0003BFB07E038E036480368026801680068B7
:1020D00003F062FC3548006841422248006801F084
:1020E0003FF8324908603348006841421F480068A1
:1020F00001F080F82F4908603048006841421D48CF
:10210000006801F0C1F82D4908602E48006841427E
:102110001A48006801F002F92A4908604FF4FA50A1
:1021200003F0F8FB27480368244802682148016847
:102130001E48006802F0A6FC0020BDE63C8240423A
:10214000143C0140A001002061000020600000203C
:10215000650100206300002064010020B900002018
:102160006701002008000020180000200C0000205B
:102170001C0000201000002020000020140000207F
:1021800024000020A8010020A40100200000C84273
:1021900058000020000000003C010020B800002092
:1021A0008800002062000020480000203800002045
:1021B0004C0000203C000020500000204000002087
:1021C0005400002044000020650000200200002090
:1021D000002123498279002A3AD00A46126803680E
:1021E0009A430B461A600A1D126803689A430B1D36
:1021F0001A60027911440A6803681A430A60184A8F
:102200000832126803689A43154B08331A601A1D86
:10221000126803689A43124B0C331A604279102AF1
:102220000ED11A1F126803681A430D4B08331A6047
:102230001A1D126803681A43094B0C331A600DE02B
:102240000749427911440A6803681A430A6005E0A5
:10225000027911440A6803689A430A6070470000D3
:10226000003C014070B500220023046844600C7BF0
:10227000CD7A44EA0524046004684568641BC460A0
:10228000C4682B4DAC4207DA846B641C8463C46859
:1022900004F50054C4610EE0C46841F64C55AC42EC
:1022A00007DD846B641E8463C468A4F50054C461B4
:1022B00001E0C468C4610568846B05EB4434846044
:1022C00004688569641B00EE104AB8EEC00ADFEDB1
:1022D000190A20EE200A9FED181AC0EE010A846B3D
:1022E0004FF4B4756C4300EE104AB8EEC00A30EEFD
:1022F000800A80ED100AC669047D651C057500F131
:10230000200545F82460047D062C01D100240475C5
:10231000002205E000F1200454F822402344521C1E
:10232000062AF7DB062493FBF4F4C46370BD0000B7
:10233000B4E2FFFF0000B4430000004600B589B0DE
:102340000121084602F090F80121084602F07CF8CD
:102350000121022002F078F84FF4004001900220A1
:102360008DF8080001208DF80A0003208DF809007F
:1023700001208DF80B0001A92B4800F087F90820F7
:10238000019002208DF8080001208DF80A0003203A
:102390008DF8090001208DF80B0001A9234800F0F9
:1023A00075F901220F21204800F0B8F9012203211C
:1023B0001E4800F0B3F906A802F014FF0020ADF8A3
:1023C00018004FF6FF7007900020ADF82000ADF820
:1023D0001A0006A94FF0804002F0C2FE00231A4600
:1023E00003214FF0804002F0D7FC03A802F02CFD3F
:1023F0000020ADF8140003A94FF0804002F0EDFC7E
:102400000121880702F0AAFC01221146900702F080
:1024100024FD00214FF0804002F073FE0121880767
:1024200002F09FFC09B000BD000002400004024021
:1024300000B589B00121022002F016F801210846FA
:1024400002F002F8C020019002208DF8080001205F
:102450008DF80A0003208DF8090001208DF80B008B
:1024600001A9214800F012F9022206211E4800F0BD
:1024700055F9022207211C4800F050F906A802F085
:10248000B1FE0020ADF818004FF6FF700790002055
:10249000ADF82000ADF81A0006A9144802F060FE5D
:1024A00000231A460321114802F076FC03A802F02B
:1024B000CBFC0020ADF8140003A90C4802F08DFC01
:1024C00001210A4802F04AFC01221146074802F0A5
:1024D000C4FC0021054802F014FE0121034802F06B
:1024E00040FC09B000BD00000000024000040040B4
:1024F00000B589B00121042001F0B6FF01210220BE
:1025000001F0A2FFC020019002208DF808000120F8
:102510008DF80A0003208DF8090001208DF80B00CA
:1025200001A9214800F0B2F8022206211E4800F05D
:10253000F5F8022207211C4800F0F0F806A802F086
:1025400051FE0020ADF818004FF6FF7007900020F4
:10255000ADF82000ADF81A0006A9144802F000FEFC
:1025600000231A460321114802F016FC03A802F0CA
:102570006BFC0020ADF8140003A90C4802F02DFC00
:1025800001210A4802F0EAFB01221146074802F045
:1025900064FC0021054802F0B4FD0121034802F06B
:1025A000E0FB09B000BD000000040240000800404C
:1025B00000B589B00121082001F056FF012108462D
:1025C00001F042FF0320019002208DF80800012055
:1025D0008DF80A0003208DF8090001208DF80B000A
:1025E00001A9214800F052F8022200211E4800F003
:1025F00095F8022201211C4800F090F806A802F08C
:10260000F1FD0020ADF818004FF6FF700790002094
:10261000ADF82000ADF81A0006A9144802F0A0FD9C
:1026200000231A460321114802F0B6FB03A802F06A
:102630000BFC0020ADF8140003A90C4802F0CDFB00
:1026400001210A4802F08AFB01221146074802F0E4
:1026500004FC0021054802F054FD0121034802F06A
:1026600080FB09B000BD000000000240000C0040EB
:1026700030B503461C788C545D78541C0D559D78FC
:10268000941C0D55DD78D41C0D5530BDF0B50A46AF
:1026900000210023002400BF3DE0012505FA01F3DD
:1026A000156805EA03049C4234D105684F000326EF
:1026B000BE40B543056015794E00B5400668354308
:1026C00005601579012D02D01579022D16D1856886
:1026D0004F000326BE40B543856055794E00B54096
:1026E000866835438560456801268E40B543456060
:1026F000456896798E40B6B235434560C5684F004F
:102700000326BE40B543C560D5794E00B540C668C6
:102710003543C560491C1029BFD3F0BDF0B5002377
:1027200000244D07ED0E02FA05F3CE1000F120054E
:1027300055F826504E07F70E0F26BE40B543CF1072
:1027400000F1200646F82750CE1000F1200555F87C
:10275000265045EA0304CE1000F1200545F8264036
:10276000F0BD0A7BCB7A42EA0322826182698260F1
:10277000826942600269521C0261704710B50446CA
:102780000723012221460848FEF752F80648FEF7C3
:10279000ABF800BF02210448FEF716F80028F9D074
:1027A0000148FEF70DF810BD0020014000B50146BC
:1027B000B6EE000AF0EE402A0122002972D1FB4851
:1027C000007809286FD2DFE800F07F05132331413C
:1027D0004F5F6F009FEDF60AF64880ED000AF6485D
:1027E00090ED000A30EE220A80ED000A01227FE01F
:1027F000F04890ED000A30EE220A80ED000AEE4823
:1028000090ED000A30EE220A80ED000A01226FE00E
:10281000E84890ED000A30EE220A80ED000A9FEDB4
:10282000E40AE54880ED000A012261E0E14890ED0C
:10283000000A30EE220A80ED000ADF4890ED000A1F
:1028400030EE620A80ED000A012251E09FEDD80AC5
:10285000D84880ED000AD84890ED000A30EE620AB0
:1028600080ED000A012243E0D24890ED000A30EEEC
:10287000620A80ED000AD04890ED000A30EE620A4C
:1028800080ED000A012233E0CA4890ED000A30EEE4
:10289000620A80ED000A9FEDC60AC74880ED000A73
:1028A000012225E0E6E00FE0C24890ED000A30EE9C
:1028B000620A80ED000AC04890ED000A30EE220A5C
:1028C00080ED000A012213E00022BA4890ED000AD0
:1028D000DFEDBA0A80EE201A80ED001AB64890EDBE
:1028E000000ADFEDB60A80EE201A80ED001A00BF64
:1028F00000BF02BBB248007801280CD1B14890ED6E
:10290000000A30EE620A80ED000A9FEDA90AAE4887
:1029100080ED000A1AE0AD48007801280CD1A948E2
:1029200090ED000A30EE220A80ED000A9FEDA00A29
:10293000A54880ED000A09E09FED9D0AA14880EDC1
:10294000000A9FEDA30AA04880ED000A012A09D1E0
:1029500000209B4B18709D4B18709FED950A99486D
:1029600080ED000A9348D0ED000A9A480068404282
:1029700000EE100AB8EEC00AF4EEC00AF1EE10FA4A
:1029800009D294480068404200EE100AB8EEC00A2E
:10299000884880ED000A8748D0ED000A8D4890ED08
:1029A000000AB8EEC00AF4EEC00AF1EE10FA06DD35
:1029B00090ED000AB8EEC00A7E4880ED000A7E481D
:1029C000D0ED000A83480068404200EE100AB8EEDD
:1029D000C00AF4EEC00AF1EE10FA09D27D48006890
:1029E000404200EE100AB8EEC00A734880ED000ABB
:1029F0007148D0ED000A774890ED000AB8EEC00AA1
:102A0000F4EEC00AF1EE10FA06DD90ED000AB8EE21
:102A1000C00A694880ED000A6A48D0ED000A6D4896
:102A20000068404200EE100AB8EEC00AF4EEC00A98
:102A3000F1EE10FA09D267480068404200EE100A31
:102A4000B8EEC00A5F4880ED000A5E48D0ED000A8B
:102A5000604890ED000AB8EEC00AF4EEC00AF1EE4C
:102A600010FA06DD90ED000AB8EEC00A554880ED78
:102A7000000A08E10129FCD14C4800780B2876D2E5
:102A8000DFE800F0FF061735466476AEBFDDEE00E6
:102A90004948D0ED000A504890ED000AB8EEC00A4F
:102AA00030EE800A444880ED000A01204B4B18703C
:102AB000E8E04048D0ED000A474890ED000AB8EE43
:102AC000C00A30EE800A3B4880ED000A0220434BEA
:102AD00018703948D0ED000A3F4890ED000AB8EE72
:102AE000C00A30EE800A344880ED000ACAE031485E
:102AF000D0ED000A384890ED000AB8EEC00A30EE7A
:102B0000800A2C4880ED000A0320344B1870B9E08D
:102B10002848D0ED000A304890ED000AB8EEC00A0F
:102B200030EE800A234880ED000A04202B4B1870F9
:102B30002148D0ED000A284890ED000AB8EEC00AFE
:102B400030EEC00A1C4880ED000A9BE01A48D0ED28
:102B5000000A214890ED000AB8EEC00A30EEC00A23
:102B6000154880ED000A05201C4B18708AE088E0AB
:102B70001048D0ED000A184890ED000AB8EEC00ADF
:102B800030EEC00A0B4880ED000A0620134B187087
:102B90000948D0ED000A104890ED000AB8EEC00ACE
:102BA00030EEC00A044880ED000A6BE0020000200D
:102BB00000000000680000206C0000206666863F70
:102BC0000000002070000020AC0100200100002067
:102BD0006F12833B880000208C000020A1010020A0
:102BE0002F48D0ED000A2F4890ED000AB8EEC00A39
:102BF00030EEC00A2A4880ED000A07202A4B1870E0
:102C000040E02748D0ED000A264890ED000AB8EED3
:102C1000C00A30EEC00A224880ED000A0820224B8C
:102C200018702248D0ED000A1E4890ED000AB8EE58
:102C3000C00A30EE800A1D4880ED000A22E01C48E0
:102C4000D0ED000A174890ED000AB8EEC00A30EE49
:102C5000C00A174880ED000A0920134B187011E0D4
:102C60001348D0ED000A0F4890ED000AB8EEC00AF4
:102C700030EE800A0E4880ED000A0A200A4B1870D8
:102C800000E000BF00BF0A4890ED001A0748D0EDF1
:102C9000000A034890ED000A00F0B4FB00BD0000FC
:102CA000680000208C000020A10100206C000020A2
:102CB0007000002070B52DED0A8B0520FFF75EFD3A
:102CC000054607F04BFE41EC1C0B9FED130B53EC3C
:102CD000102B07F093FE41EC1B0B9FED110B53ECF7
:102CE000102B07F08BFE41EC1A0B9FED0F0B53ECF2
:102CF000102B07F083FE41EC190B9FED0D0B53ECED
:102D0000102B07F051FC41EC180B07F0E1FD0446D5
:102D10002046BDEC0A8B70BD6666666666660A4034
:102D200000000000000026400000000000005940A4
:102D3000000000000000B04000BFFEE770B505468F
:102D40000E46002400F0F4F8284600F0BFF8641C9A
:102D500000F046F9304600F0B9F8641C00F040F984
:102D600000F0E6F8691CC8B200F0B0F8641C00F08E
:102D700037F9002000F074F8044600F00DF9204601
:102D800070BD000010B500200E4908600E480068B4
:102D900020F440000C4908600846006840F48000B8
:102DA000086000200949C1F8AC02012004F01AFBB8
:102DB00001200449086004F015FB00200349C1F814
:102DC000A80210BDA8824042000402400080404298
:102DD0001CB50121022001F037FB4FF44060009048
:102DE00001208DF8040000208DF8060003208DF8E6
:102DF000050001208DF8070069460548FFF746FCED
:102E00004FF4806002491A310880400008801CBDE0
:102E10000004024010B500200E4908600E4800680A
:102E200020F440000C4908600846006840F4800027
:102E3000086001200949C1F8AC0204F0D3FA01206E
:102E40000449086004F0CEFA00200449C1F8A80241
:102E500010BD0000A88240420004024000804042B1
:102E600070B5054600241648006820F44000144957
:102E70000860084600680860002616E00020114936
:102E80000860022004F0AEFA01200F49C1F8A80240
:102E90006006040E0B487C38006808B1601CC4B2A0
:102EA000022004F09FFA701CC6B2082EE6DB15B1B2
:102EB000FFF768FF01E0FFF7ADFF204670BD00009F
:102EC00000040240A88240420080404270B504469F
:102ED0001448006820F44000124908600846006861
:102EE00040F48000086000200F490860002516E0CB
:102EF000E0090D49091D08606006040E012004F078
:102F000071FA01200949C1F8A80204F06BFA002007
:102F100005490860012004F065FA681CC5B2082D57
:102F2000E6DB70BD00040240A882404200804042BF
:102F300010B51648006820F440001449086008469F
:102F4000006840F4800008600120114908601148C1
:102F5000D0F82C0208B9002010BD01200C49091F2F
:102F6000086004F03FFA00200A49C1F8AC020848A2
:102F70008038006808B10020EEE7012004F032FA42
:102F800000200349091F08600120E5E70004024012
:102F9000AC8240420080404210B50E48006820F4E8
:102FA00040000C4908600846006840F48000086052
:102FB0000020094908600949C1F8AC02012004F069
:102FC00011FA0120044908600449C1F8AC0204F078
:102FD00009FA10BD00040240A8824042008040422D
:102FE00010B500241448006820F44000124908601D
:102FF00008460068086001201049086004F0F2F9F2
:1030000001200F49C1F8A80204F0ECF90AE0601CA5
:10301000C4B2322C03DDFFF7BFFF002010BD01203A
:1030200004F0E0F90548803800680028EFD1034932
:10303000091F08600120F1E700040240AC82404211
:103040000080404270B505460E461446314628467B
:10305000FFF774FE2070012070BDF8B506460F46DC
:1030600014461D466A4639463046FFF7EBFF2DB140
:103070000120A0409DF80010084305E00120A04079
:103080009DF8001021EA0000C0B200909DF80020D9
:103090003946304600F036F8F8BD2DE9F8430746CA
:1030A000884614461D46089E6A4641463846FFF744
:1030B000C9FF28B3601CFF2101FA00F0C4F1080128
:1030C0002944491EFF220A41104300F0FF09C5F1BF
:1030D000080006FA00F0C6B2C4F1070006419DF8E8
:1030E000000000EA090000909DF8000030430090C5
:1030F0009DF800204146384600F004F8BDE8F8830A
:103100000020FBE737B504460D4602AB01222946F5
:10311000204600F001F83EBD2DE9F04180460D4605
:1031200016461F460024FFF703FF4046FFF7CEFE7A
:10313000FFF756FF2846FFF7C9FEFFF751FF00BF14
:1031400006E0385DFFF7C2FEFFF74AFF601CC4B21D
:10315000B442F6DBFFF720FF0120BDE8F08100005C
:103160000246501A1D4B1860184600681C4B1B681D
:10317000C01A00EE100AB8EEC00A1A48D0ED000AD4
:1031800020EE200A184890ED001A1448D0ED000AED
:10319000F8EEE00A01EE200A1448D0ED000AF8EE3D
:1031A000E00A30EE200ABDEEC00A80ED000A006899
:1031B00042F2D003984202DD18460C4B18600B48CF
:1031C00000680B4B984202DA1846084B1860034817
:1031D0000068034B1860054800687047B401002080
:1031E000BC0100208000002084000020B8010020E5
:1031F00030DFFFFF0246501A1D4B1860184600686A
:103200001C4B1B68C01A00EE100AB8EEC00A1A4820
:10321000D0ED000A20EE200A184890ED001A14485C
:10322000D0ED000AF8EEE00A01EE200A1448D0EDD5
:10323000000AF8EEE00A30EE200ABDEEC00A80ED8A
:10324000000A006842F2D003984202DD18460C4B97
:1032500018600B4800680B4B984202DA1846084B7E
:10326000186003480068034B186005480068704701
:10327000C0010020C8010020800000208400002040
:10328000C401002030DFFFFF0246501A1D4B1860BA
:10329000184600681C4B1B68C01A00EE100AB8EEF6
:1032A000C00A1A48D0ED000A20EE200A184890ED16
:1032B000001A1448D0ED000AF8EEE00A01EE200AE8
:1032C0001448D0ED000AF8EEE00A30EE200ABDEE18
:1032D000C00A80ED000A006842F2D003984202DD85
:1032E00018460C4B18600B4800680B4B984202DAEA
:1032F0001846084B186003480068034B18600548DF
:1033000000687047CC010020D4010020800000201C
:1033100084000020D001002030DFFFFF0246501A59
:103320001D4B1860184600681C4B1B68C01A00EE45
:10333000100AB8EEC00A1A48D0ED000A20EE200AA2
:10334000184890ED001A1448D0ED000AF8EEE00A93
:1033500001EE200A1448D0ED000AF8EEE00A30EE43
:10336000200ABDEEC00A80ED000A006842F2D003D8
:10337000984202DD18460C4B18600B4800680B4B56
:10338000984202DA1846084B186003480068034B5D
:103390001860054800687047D8010020E00100204F
:1033A0008000002084000020DC01002030DFFFFFCF
:1033B0001CB50121022001F047F84FF4A040009015
:1033C00000208DF8040003208DF8050001208DF801
:1033D000070069460148FFF759F91CBD0004024087
:1033E00010B5642003F0FAFE0446022C07D104480D
:1033F000007808B9012000E000200149087010BDE4
:1034000004000020F1EE401A71EEA01A9FED162A7A
:1034100041EE421AFDEEE11A1448C0ED001A70EEBA
:10342000201A9FED112A41EE421AFDEEE11A1048D2
:10343000C0ED001AF1EE401A71EEA01A9FED0A2AB3
:1034400041EE021AFDEEE11A0A48C0ED001A70EED4
:10345000201A9FED052A41EE021AFDEEE11A0648F8
:10346000C0ED001A704700001058393E4800002097
:103470004C0000205000002054000020F1EE401AC3
:1034800071EEA01A9FED162A41EE421AFDEEE11AE6
:103490001448C0ED001A70EE201A9FED112A41EE7B
:1034A000421AFDEEE11A1048C0ED001AF1EE401A82
:1034B00071EEA01A9FED0A2A41EE021AFDEEE11A02
:1034C0000A48C0ED001A70EE201A9FED052A41EE61
:1034D000021AFDEEE11A0648C0ED001A704700001E
:1034E0001058393E280000202C0000203000002019
:1034F000340000201CB50121022000F0A5FF4FF48C
:103500000050009001208DF8040000208DF8060086
:1035100003208DF8050001208DF807006946024858
:10352000FFF7B4F81CBD00000004024018B90021E8
:10353000094A11600FE009490968491C074A1160EE
:10354000814208D104490968C943054AC2F8B41246
:103550000021024A11607047B4824042E800002016
:103560000080404210B5022000F010F8032000F067
:1035700021F8002000F014F8002000F037F80020B7
:1035800000F02BF8002000F01FF810BD38B50446FD
:10359000032302226B21D0200094FFF77EFD38BD6B
:1035A00038B50446022304221C21D0200094FFF7E2
:1035B00074FD38BD38B50446022304221B21D020F7
:1035C0000094FFF76AFD38BD10B50446234601227A
:1035D0003721D020FFF741FD10BD10B5044623462A
:1035E00005226A21D020FFF738FD10BD10B5044632
:1035F000234606226B21D020FFF72FFD10BD00BF10
:10360000FEE7000000B585B00121022000F01CFF9C
:103610000121880300F048FF0F21012001F06EF91D
:103620004FF40040039000208DF8100003208DF827
:10363000110000208DF8130003A91048FFF726F8A9
:103640004FF40040019000208DF808000C208DF808
:10365000090001208DF80A0001A8FEF7B9FD282015
:103660008DF8000001208DF801008DF802008DF822
:103670000300684600F0DEF805B000BD000402401B
:103680001CB50121062000F0DFFE02200090012081
:103690008DF8040000208DF8060003208DF8050049
:1036A00001208DF8070069462248FEF7EFFF012050
:1036B00000908DF8040000208DF8060003208DF89E
:1036C000050001208DF8070069461A48FEF7DEFF65
:1036D0001020009001208DF8040000208DF80600D5
:1036E00003208DF8050001208DF807006946124877
:1036F000FEF7CCFF2020009001208DF80400002070
:103700008DF8060003208DF8050001208DF80700D4
:1037100069460948FEF7BAFF0120064918310880BA
:1037200002200880102004491831088020200880D9
:103730001CBD0000000402400008024030B58BB000
:1037400005460C460121022000F0AEFE01210420B6
:1037500000F07AFE032206213348FEF7DFFF032242
:1037600007213148FEF7DAFF032208212E48FEF731
:10377000D5FF032209212C48FEF7D0FF4FF47070CB
:10378000099002208DF8280000208DF82A000320DF
:103790008DF8290001208DF82B0009A92248FEF799
:1037A00075FF0795ADF818400020ADF82000ADF882
:1037B0001A0006A91D4801F0D3FC6020ADF80400F2
:1037C0000120ADF806000020ADF8100001A917484F
:1037D00001F04CFB01A9154801F090FB01A9134829
:1037E00001F0ECFB01A9114801F042FC01210F4856
:1037F00001F0C3FA08210D4801F076FB08210B48BF
:1038000001F0CEFB0821094801F028FC08210748F7
:1038100001F06AFC0121054801F094FA01210348F6
:1038200001F09FFA0BB030BD0008024000040140D7
:103830007047000070B5002100230F22C4781CB32C
:10384000174C246804F4E064C4F5E064C4F3072171
:10385000C1F10404E3B20A4144789C40E1B28478A7
:10386000144021430C07210E0E4C05786155047855
:1038700004F01F050124AC4005786D11AD0005F181
:10388000E025C5F8004109E0047804F01F05012493
:10389000AC40054D0678761145F8264070BD000015
:1038A0000CED00E000E400E080E100E002490143AB
:1038B000024A1160704700000000FA050CED00E0BC
:1038C00030B500240CE0002506E00020074901EB9C
:1038D000C5010855681CC5B2802DF6DB601CC4B25A
:1038E000082CF0DB00F0DAF830BD0000680400209E
:1038F000F0B5144600267F2801DC3F2900DDF0BD2D
:103900000B46CF1701EB5777FF10C7F10707FAB245
:10391000CF1701EB5777FF10A1EBC707FDB2C5F139
:1039200007070123BB40DEB24CB10A4B03EBC003D7
:103930009B5C3343074F07EBC007BB5408E0054BC4
:1039400003EBC0039B5CB343024F07EBC007BB54C0
:1039500000BFD4E7680400201CB50121042000F05A
:1039600073FD0121080700F07FFD012000F084FBBA
:10397000002000F02DFE4EF20100009001208DF895
:10398000040000208DF806008DF805008DF8070072
:1039900069463F48FEF77AFE01203D491A3108800A
:1039A000400308804000088040000880002039491A
:1039B0000860642003F0FAFC01203749C1F8BC021A
:1039C0000021AE2000F050F90021D52000F04CF984
:1039D0000021502000F048F90021A82000F044F90F
:1039E00000213F2000F040F90021D32000F03CF9F5
:1039F0000021084600F038F90021402000F034F999
:103A000000218D2000F030F90021142000F02CF965
:103A10000021202000F028F90021022000F024F9E4
:103A20000021A12000F020F90021C02000F01CF9A5
:103A30000021DA2000F018F90021122000F014F91A
:103A40000021812000F010F90021EF2000F00CF996
:103A50000021D92000F008F90021F12000F004F93C
:103A60000021DB2000F000F90021302000F0FCF8FC
:103A70000021A42000F0F8F80021A62000F0F4F8BE
:103A80000021AF2000F0F0F8FFF71AFF1CBD000086
:103A900000080240BC0241420000414230B500240F
:103AA0001CE004F1B001C8B2002100F0DDF80021F3
:103AB000084600F0D9F80021102000F0D5F80025C4
:103AC00008E0084901EBC501085D012100F0CCF8D0
:103AD000681CC5B2802DF4DB601CC4B2082CE0DB8E
:103AE00030BD0000680400202DE9F04F80460C46F0
:103AF00015461E46A346A5F12000C5B200273EE0AC
:103B00000C2E07D105EB45001F4901EB800010F892
:103B1000079004E01D4800EB051010F807904FF0E7
:103B2000000A26E009F0800028B121464046099AA3
:103B3000FFF7DEFE09E0099808B9012000E0002047
:103B4000024621464046FFF7D3FE4FEA49604FEA5E
:103B50001069601CC4B2A4EB0B00B04205D15C46F6
:103B600008F1010000F0FF0806E00AF1010000F092
:103B7000FF0ABAF1080FD5DB00BF781CC7B2B74205
:103B8000BEDBBDE8F08F0000CEB1000842B60008F1
:103B90002DE9FF4F81B0074691461E460E9D4FF01E
:103BA000000A002439E0301B401EC1B20A2005F093
:103BB000ABFEB9FBF0F00A21B0FBF1F201FB1208F9
:103BC000BAF1000F16D1701EA04213DDB8F1000F3C
:103BD0000ED10120AB4605EBDB71491001FB0471EE
:103BE0000090C8B22B4620220299FFF77DFF12E019
:103BF0004FF0010A0120AB4605EBDB71491001FBD8
:103C000004710090C8B208F13001CAB22B46029983
:103C1000FFF76AFF00BF601CC4B2B442C3DB05B04B
:103C2000BDE8F08F78B505460E46144618E07A2DAB
:103C300003DD002506F11000C6B23A2E04DD002097
:103C400005460646FFF73CFE0120009022780C2333
:103C500031462846FFF748FF05F10800C5B2641C4D
:103C600020780028E3D178BD10B50A461AB10123A7
:103C7000124C236002E00023104C2360002116E068
:103C800000230E4C3434236000F080031BB1012369
:103C9000241D236003E00023084C383423600123F3
:103CA000064C343423604306180E4B1CD9B2082945
:103CB000E6DB0123014C236010BD0000800241427D
:103CC00001460148405C704768080020002004E07D
:103CD0000021034A1154411CC8B20928F8DB70477F
:103CE0006808002038B504460120009000201D49D6
:103CF0004870012000902DE0BDF80000204018B170
:103D000001201949086002E00020174908600120DD
:103D100016490860052003F065FB00201449C1F82E
:103D20009002052003F05EFB01201149C1F89002CA
:103D30001048D0F8080230B10A484078BDF80010A9
:103D4000084308494870BDF800004FF6FF7101EACA
:103D500040000090BDF80000FF28CDDD102003F0EA
:103D600041FB38BD68080020840241429002404275
:103D7000000040420000414210B5FFF7A7FF00F0ED
:103D8000C1F80F48C0780E49097940EA01200D4971
:103D9000088000240FE00C4810F81400401E012198
:103DA00001FA00F007490988084010B9601CC0B248
:103DB00010BD601CC4B2102CEDDB0020F8E7000041
:103DC00068080020400100204401002010B50020B8
:103DD00013490860102003F005FB0120FFF782FF64
:103DE0004320FFF77FFF0020FFF77CFF0120FFF754
:103DF00079FF0020FFF776FF0020FFF773FF002018
:103E0000FFF770FF0020FFF76DFF0020FFF76AFF4C
:103E100001200449C1F88C02102003F0E3FA10BD20
:103E20008C0241420000414210B500201349086055
:103E3000102003F0D7FA0120FFF754FF4320FFF7CB
:103E400051FF0020FFF74EFF0020FFF74BFF5A20E5
:103E5000FFF748FF5A20FFF745FF5A20FFF742FFC0
:103E60005A20FFF73FFF5A20FFF73CFF012004498B
:103E7000C1F88C02102003F0B5FA10BD8C0241424B
:103E8000000041421CB50121052000F0DDFA0420AC
:103E9000009000208DF8040003208DF8050001201B
:103EA0008DF8070069461548FEF7F0FB10200090DA
:103EB00001208DF8040000208DF8060002208DF806
:103EC000050001208DF8070069460D48FEF7DEFB6E
:103ED0000A20009001208DF8040000208DF80600D3
:103EE00002208DF8050001208DF8070002208DF8D2
:103EF000050069460148FEF7C9FB1CBD00080240E9
:103F0000000002401CB5002001900120009000201C
:103F10002549086025490878FFF7E4FE23494878D9
:103F2000FFF7E0FE0220019035E00120009026E03E
:103F300001201F490860052003F054FA00201D49A4
:103F4000C1F89002052003F04DFA01201949C1F88B
:103F500090021948D0F8080250B118489DF8041092
:103F6000405CBDF80010084314499DF804208854B3
:103F7000BDF800004FF6FF7101EA40000090BDF867
:103F80000000FF28D4DD102003F02CFA9DF8040077
:103F9000401CC0B201909DF804000928C5DB012037
:103FA000014908601CBD00008C0241424201002012
:103FB0009002404200004042000041426808002058
:103FC00010B500F00BF800F009F800F007F8FFF763
:103FD000FDFE00F025F8FFF727FF10BD10B500200B
:103FE0000D490860102003F0FDF90120FFF77AFE6B
:103FF0004220FFF777FE0020FFF774FE0020FFF756
:1040000071FE0020FFF76EFE01200449C1F88C020A
:10401000102003F0E7F910BD8C024142000041423C
:1040200010B50020124908600120FFF75BFE442014
:10403000FFF758FE0020FFF755FE0120FFF752FE64
:104040000320FFF74FFE0020FFF74CFE0020FFF794
:1040500049FE0020FFF746FE0020FFF743FE012047
:104060000449C1F88C02102003F0BCF910BD000017
:104070008C02414200004142014908627047000041
:1040800000000E42704700000246501A00EE100A6F
:10409000B8EEC00A2C4880ED000A2C4890ED000ACA
:1040A0002948D0ED000A30EE200A284880ED000AA9
:1040B00090ED000ADFED260AB4EEE00AF1EE10FA08
:1040C00003DD9FED240A80ED000A204890ED000AF0
:1040D000DFED210AB4EEE00AF1EE10FA03D29FED13
:1040E0001F0A80ED000A1E4890ED000A9FED1D1A80
:1040F000C0EE010A154890ED000A20EE800A1A4829
:10410000D0ED000A104890ED001A00EE810AD0EDC3
:10411000000A164890ED001A70EEC10A144890ED9E
:10412000001A01EE200A134880ED000A064890EDBF
:10413000000A0E4880ED000A0E4890ED000ABDEE20
:10414000C00A10EE100A7047E4010020EC010020C4
:104150000050C34700401C460050C3C700401CC667
:10416000780000200000C84274000020F001002008
:104170007C000020E80100200246501A00EE100AE0
:10418000B8EEC00A2C4880ED000A2C4890ED000AD9
:104190002948D0ED000A30EE200A284880ED000AB8
:1041A00090ED000ADFED260AB4EEE00AF1EE10FA17
:1041B00003DD9FED240A80ED000A204890ED000AFF
:1041C000DFED210AB4EEE00AF1EE10FA03D29FED22
:1041D0001F0A80ED000A1E4890ED000A9FED1D1A8F
:1041E000C0EE010A154890ED000A20EE800A1A4838
:1041F000D0ED000A104890ED001A00EE810AD0EDD3
:10420000000A164890ED001A70EEC10A144890EDAD
:10421000001A01EE200A134880ED000A064890EDCE
:10422000000A0E4880ED000A0E4890ED000ABDEE2F
:10423000C00A10EE100A7047F4010020FC010020B3
:104240000050C34700401C460050C3C700401CC676
:10425000780000200000C842740000200002002006
:104260007C000020F80100200246501A00EE100ADF
:10427000B8EEC00A2C4880ED000A2C4890ED000AE8
:104280002948D0ED000A30EE200A284880ED000AC7
:1042900090ED000ADFED260AB4EEE00AF1EE10FA26
:1042A00003DD9FED240A80ED000A204890ED000A0E
:1042B000DFED210AB4EEE00AF1EE10FA03D29FED31
:1042C0001F0A80ED000A1E4890ED000A9FED1D1A9E
:1042D000C0EE010A154890ED000A20EE800A1A4847
:1042E000D0ED000A104890ED001A00EE810AD0EDE2
:1042F000000A164890ED001A70EEC10A144890EDBD
:10430000001A01EE200A134880ED000A064890EDDD
:10431000000A0E4880ED000A0E4890ED000ABDEE3E
:10432000C00A10EE100A7047040200200C020020A0
:104330000050C34700401C460050C3C700401CC685
:10434000780000200000C842740000201002002005
:104350007C000020080200200246501A00EE100ADD
:10436000B8EEC00A2C4880ED000A2C4890ED000AF7
:104370002948D0ED000A30EE200A284880ED000AD6
:1043800090ED000ADFED260AB4EEE00AF1EE10FA35
:1043900003DD9FED240A80ED000A204890ED000A1D
:1043A000DFED210AB4EEE00AF1EE10FA03D29FED40
:1043B0001F0A80ED000A1E4890ED000A9FED1D1AAD
:1043C000C0EE010A154890ED000A20EE800A1A4856
:1043D000D0ED000A104890ED001A00EE810AD0EDF1
:1043E000000A164890ED001A70EEC10A144890EDCC
:1043F000001A01EE200A134880ED000A064890EDED
:10440000000A0E4880ED000A0E4890ED000ABDEE4D
:10441000C00A10EE100A7047140200201C0200208F
:104420000050C34700401C460050C3C700401CC694
:10443000780000200000C842740000202002002004
:104440007C0000201802002029B1064A12680243AD
:10445000044B1A6004E0034A12688243014B1A605D
:10446000704700003038024029B1064A1268024302
:10447000044B1A6004E0034A12688243014B1A603D
:10448000704700004038024029B1064A12680243D2
:10449000044B1A6004E0034A12688243014B1A601D
:1044A000704700002038024029B1064A12680243D2
:1044B000044B1A6004E0034A12688243014B1A60FD
:1044C000704700004438024029B1064A126802438E
:1044D000044B1A6004E0034A12688243014B1A60DD
:1044E0007047000024380240F0B50021002200246B
:1044F000022500260223324F3F6807F00C0121B14C
:10450000042905D0082937D105E02E4F076036E091
:104510002D4F076033E02A4F3F1F3F68C7F3805697
:10452000274F3F1F3F6807F03F036EB1264FB7FB91
:10453000F3F7DFF88CC0ACF1040CDCF800C0CCF36E
:10454000881C07FB0CF40CE01E4FB7FBF3F7DFF8F9
:1045500070C0ACF1040CDCF800C0CCF3881C07FB85
:104560000CF4174F3F1F3F68C7F301477F1C7D00C6
:10457000B4FBF5F7076002E0124F076000BF00BF11
:104580000F4F3F6807F0F0010909104F7A5C076888
:10459000D74047600A4F3F6807F4E051890A0B4F44
:1045A0007A5C4768D7408760054F3F6807F46041F1
:1045B000490B064F7A5C4768D740C760F0BD0000E2
:1045C000083802400024F40000127A00A500002000
:1045D0000021094A11701170012802D0042808D165
:1045E00003E00121044A117004E00521024A117020
:1045F00000E000BF00BF70477038024000B52DEDED
:10460000088B89B007A8964908AB03AACDE900102A
:104610009449954803F0B4F89148008800F48070FC
:1046200000287DD09DED030AB8EEC00ADFED8F0AA9
:1046300080EE201A8E4880ED001A9DED040AB8EE37
:10464000C00ADFED8A0A80EE201A8A4880ED001A3F
:104650009DED050AB8EEC00ADFED840A80EE201A4F
:10466000854880ED001A9DED060AB8EEC00ADFED20
:104670007F0A80EE201A814880ED001A7D4890ED77
:10468000000AF8EE000A20EE200A7C48D0ED000A6D
:1046900020EE200A7648D0ED000AB0EE001A60EE57
:1046A000810A754890ED001A00EE810A10EE101A8A
:1046B000084606F099FC41EC1A0BB0EE4A0AF0EEFF
:1046C0006A0A01F0C5F9B0EE409AF0EE609A9FEDEB
:1046D0006C0B53EC102B51EC190B06F08FF941ECDD
:1046E000180B05F073FE68490860624890ED000AF7
:1046F000F8EE000A20EE200AD0ED000A20EE200A93
:104700005D48D0ED000AB0EE001A60EE810A90ED2F
:10471000001A00EEC10AF7EE000A30EE200A00E0AF
:1047200099E010EE101A084606F05EFC41EC1A0BF8
:10473000514890ED000AF0EE000A20EE200A4F48A2
:10474000D0ED000A20EE200A4948D0ED000AB0EE74
:10475000001A60EE810A474890ED001A00EE810AC7
:1047600010EE101A084606F03FFC41EC1B0BB0EEB1
:104770004A1AF0EE6A1AB0EE4B0AF0EE6B0A01F03C
:1047800083FCB0EE409AF0EE609A9FED3D0B53EC47
:10479000102B51EC190B06F031F941EC180B05F018
:1047A00015FE3A490860324890ED000A20EE000AF2
:1047B0003048D0ED000A90ED001A00EE810A2E4834
:1047C000D0ED000A90ED001A00EEC10A2B48D0EDA2
:1047D000000A90ED001A00EEC10A10EE101A084609
:1047E00006F002FC41EC1A0B224890ED000A224828
:1047F000D0ED000A20EE200A1D48D0ED000A1F4827
:1048000090ED001A00EE810AF0EE000A20EE200A78
:1048100010EE101A084606F0E7FB41EC1B0BB0EE59
:104820004A1AF0EE6A1AB0EE4B0AF0EE6B0A01F08B
:104830002BFCB0EE409AF0EE609A9FED110B53EC1A
:10484000102B51EC190B06F0D9F841EC180B05F0C0
:10485000BDFD0F49086009B0BDEC088B00BD00002C
:10486000F8000020F2000020EC0000200000804E44
:10487000FC000020000100200401002008010020AD
:104880006666666666A64C400C010020100100209A
:10489000140100200146022906D003290DD0042965
:1048A00012D005291ED116E04FF08042526A10B294
:1048B00000224FF080435A6216E00C4A126810B290
:1048C00000220A4B1A600FE0094A126810B2002257
:1048D000074B1A6008E0074A126810B20022054B25
:1048E0001A6001E0002000BF00BF704724040040B0
:1048F00024080040240C00407047000030B500221E
:104900008B071C0F0F2303FA04F20B4B8C1053F888
:1049100024309343084C8D1044F8253023468C10E6
:1049200053F824308C07240F00FA04F42343024C7C
:104930008D1044F8253030BD083801400CB50020FA
:10494000019000903448006840F48030324908609B
:1049500000BF3148006800F4003000900198401C0E
:104960000190009818B90198B0F5A04FF1D12A48EC
:10497000006800F4003010B10120009001E0002038
:1049800000900098012846D123484030006840F04C
:1049900080502149403108602048006840F4404080
:1049A0001E4908601C48083000681B49083108602F
:1049B0000846006840F4004008600846006840F47B
:1049C000A05008601648091F0860081F006840F0E2
:1049D0008070091F086000BF0F48006800F0007079
:1049E0000028F9D040F205700E4908600A480830E6
:1049F000006820F003000849083108600846006894
:104A000040F00200086000BF03480830006800F072
:104A10000C000828F8D10CBD00380240007000409E
:104A200008544007003C02402DE9F04186B0804622
:104A30000C4615461E460C9F4FF400700190002056
:104A40008DF80C008DF80D0008208DF80E00200A5E
:104A50008DF80F008DF81040290A8DF811108DF88F
:104A60001250310A8DF813108DF81460390A8DF840
:104A700015108DF8167001A94046FCF769FD06B0C7
:104A8000BDE8F08130B5002805DD254C206000240C
:104A9000244D2C6007E042F2D0040444204D2C60E9
:104AA0000124204D2C60002909DD42F2D004641A53
:104AB0001B4D2D1D2C6001241B4D2C6006E04C422B
:104AC000174D2D1D2C600024174D2C60002A0ADD87
:104AD00042F2D004A41A124D08352C600124114D65
:104AE0002D1D2C6007E054420D4D08352C6000242C
:104AF0000C4D2D1D2C60002B07DD094C0C34236060
:104B00000024094D2D1D2C6009E042F2D0041C4404
:104B1000034D0C352C600124034D2D1D2C6030BD40
:104B2000340401409002414280824042042808D16E
:104B30004FF0E021096941F004014FF0E0221161DA
:104B400007E04FF0E021096921F004014FF0E02275
:104B5000116170477047000010B51548006840F4B7
:104B60007000134908601348006840F001001149C3
:104B7000086000200F49083108600E4800680E499F
:104B800008400C4908600D48091D0860081F0068AE
:104B900020F48020091F0860002006490C310860BD
:104BA000FFF7CCFE4FF0006001498039086010BD6E
:104BB00088ED00E000380240FFFFF6FE10300024D0
:104BC000F0B50C46154600210022068C4FF6FE7704
:104BD0003E400684018B028C4FF60C7631407E1CE1
:104BE00006EA03162E4331434FF6F576324044F081
:104BF0000106324301830284F0BDF0B50C46154630
:104C0000002100220026078C4FF6EF7C07EA0C07F4
:104C10000784018B028C4FF6FF7707EA041640F6F3
:104C2000FF4739404FF6FF7707EA033739434FF61E
:104C3000FF7707EA052739434FF65F773A4046F09A
:104C400010073A4301830284F0BDF0B50C461546C7
:104C5000002100220026078C4FF6FF6C07EA0C07A4
:104C60000784818B028C4FF6FF7707EA04264FF604
:104C70000C7739404FF6FF7707EA03172F43394384
:104C80004FF2FF573A4046F480773A4381830284DB
:104C9000F0BDF0B50C461546002100220026078C19
:104CA0004EF6FF7C07EA0C070784818B028C4FF6D7
:104CB000FF7707EA043640F6FF4739404FF6FF77A3
:104CC00007EA052739434FF6FF7707EA03373943E9
:104CD00045F6FF773A4046F480573A438183028491
:104CE000F0BD4FF08040008A4FF08040008A20F0F5
:104CF00001004FF08041088270470000044800889E
:104D00000348008820F00100014908807047000036
:104D100010040040044800880348008820F0010087
:104D200001490880704700001008004004480088CE
:104D30000348008820F00100014908807047000006
:104D4000100C004021B1028842F08002028004E091
:104D500002884FF67F731A4002807047CA4302826E
:104D6000704721B1028842F00102028004E002880B
:104D70004FF6FE731A400280704731B1B0F84420FC
:104D800042F40042A0F8442005E0B0F84420C2F309
:104D90000E02A0F844207047F0B50C4615461E469A
:104DA0000021002200230189028B038C4FF6F87743
:104DB000394021434FF6FC473A4040F201173A434D
:104DC0004FF6DD773B404FF6FF7707EA06172F4394
:104DD0003B43018102830384F0BD70B505460C4658
:104DE000208850B92389A28861882846FFF7E8FE09
:104DF000E188284600F087F925E0208804280AD1B8
:104E00002389A28861882846FFF7F7FEE1882846B3
:104E100000F082F917E0208808280AD12389A288A7
:104E200061882846FFF711FFE188284600F081F9E4
:104E300009E02389A28861882846FFF72AFFE188D4
:104E4000284600F07FF970BD0021018041800121DA
:104E500081800021C180018170471AB183890B4391
:104E6000838102E083898B438381704770B500247E
:104E700000220023058C4FF6FE7635400584028C17
:104E80008388048B4FF68F752C40B51E2C400D88FF
:104E90002C43751E2A408D892A434D882A43104D84
:104EA000A84202D00F4DA84213D14FF6F7752A4001
:104EB000CD892A434FF6FB752A408D882A434FF649
:104EC000FF652B404FF6FF552B400D8A2B434D8A33
:104ED0002B43838004838D684563028470BD00008A
:104EE00000000140000401400A460021018B4FF6FA
:104EF000F7731940114301837047000070B5002417
:104F000000220023058C4FF6EF7635400584028C95
:104F10008388048B48F6FF752C404FF6FF452C40E4
:104F20000D884FF6FF7606EA05252C434FF6DF7510
:104F30002A408D8906EA05152A434D8806EA05159B
:104F40002A43154DA84202D0144DA8421DD14FF658
:104F50007F752A40CD894FF6FF7606EA05152A436C
:104F60004FF6BF752A408D8806EA05152A434FF68D
:104F7000FF352B404FF2FF752B400D8A06EA850561
:104F80002B434D8A06EA85052B43838004838D6875
:104F90008563028470BD00000000014000040140F0
:104FA0000A460021018B4FF2FF7319404FF6FF7341
:104FB00003EA0223194301837047000070B50024FF
:104FC00000220023058C4FF6FF6635400584028CD5
:104FD0008388848B4FF68F752C404FF6FC752C40E0
:104FE0000D882C434FF6FF552A408D894FF6FF76EA
:104FF00006EA05252A434D8806EA05252A43154D6C
:10500000A84202D0144DA8421DD14FF2FF752A408C
:10501000CD894FF6FF7606EA05252A434FF6FF3580
:105020002A408D8806EA05252A434EF6FF752B4057
:105030004DF6FF752B400D8A06EA05152B434D8A68
:1050400006EA05152B43838084838D68C56302843B
:1050500070BD000000000140000401400A4600212C
:10506000818B4FF6F773194011438183704700001D
:1050700070B5002200230024058C4EF6FF763540E3
:105080000584038C8488828B48F6FF752A404FF68E
:10509000FF452A400D884FF6FF7606EA05252A438C
:1050A0004DF6FF752B408D8906EA05352B434D885B
:1050B00006EA05352B430A4DA84202D0094DA84205
:1050C00008D14BF6FF752C400D8A4FF6FF7606EAA5
:1050D00085152C43848082838D680564038470BDAC
:1050E00000000140000401400A460021818B4FF27C
:1050F000FF7319404FF6FF7303EA022319438183BC
:10510000704741627047028B4FF6F3731A40028377
:10511000028B0A4302837047028B4FF2FF331A401F
:105120000283028B4FF6FF7303EA01231A430283C3
:105130007047828B4FF6F3731A408283828B0A4347
:1051400082837047828B4FF2FF331A408283828BB7
:105150004FF6FF7303EA01231A438283704700006E
:1051600000220288184B98420ED0184B98420BD060
:10517000B0F1804F08D0164B984205D0154B98429D
:1051800002D0154B984204D14FF68F731A404B88CA
:105190001A43124B984207D0114B984204D04FF655
:1051A000FF431A400B891A4302804B68C3620B8885
:1051B0000385054B984202D0044B984201D18B7A6B
:1051C00003860123838270470000014000040140F0
:1051D0000004004000080040000C004000100040A7
:1051E000001400404FF0FF31416000210180018137
:1051F0004180817270470000014640F25642914260
:1052000015DA012000220B4B1A601B1D1A601B1DB2
:105210001A601B1D1A60084B1A60084BC3F88022E5
:10522000054B1B1D1A60054BC3F8842200E00020CB
:105230007047000034040140900241420080404227
:1052400010B540F225511D4800F0A2FA10B31B48DA
:1052500000F058FBC4B21A48008800F40040C8B9F6
:105260001748008800F4804060B10A2C03D0002069
:105270001349088020E01248008840F4004010499B
:10528000088019E00D2C06D10D48008840F48040BC
:105290000B49088010E00A480088C0F30D00094956
:1052A0000C5407480088401C0549088008460088BF
:1052B000C72801DD0020088010BD0000001001405B
:1052C000980000205402002010B52DED0C8B40F208
:1052D0002551A24800F05CFA00287DD09F48001DAF
:1052E00000889F490870084600784B2803D10120A8
:1052F0009C4908700AE09A480078492803D09848E9
:1053000000784A2802D10020964908709648007813
:1053100000284DD193480078D0B9914800784128B1
:1053200009DB8F480078482805DC8D480078403834
:105330008E4908703CE08A480078082804DC8848D8
:1053400000788A49087033E00020884908702FE00F
:105350008448007801282BD181480078432806D161
:105360000020834908700120824908700FE07C48C2
:105370000078472806D101207D49087000207D492A
:10538000087004E000207A4908707A49087074486F
:105390000078412803D072480078452805D170482C
:1053A000007840387149087002E000206F490870A9
:1053B0006B4800787B2802D101206F49087068484B
:1053C00000787D2802D102206B4908706A48007875
:1053D00001280CD1624800E083E000786749684A00
:1053E0001278885466480078401C65490870624805
:1053F0000078022875D16148C078502803D1012077
:105400006049087095E05D48C078572803D10120B5
:105410005D4908708DE059484078232870D058487D
:1054200000785A4908703AE055490978574A127885
:10543000881A05F07CFA41EC1D0BB0EE4D1AF0EE27
:105440006D1A9FED530B00F01FFFB0EE40BAF0EE67
:1054500060BA4E490978491E484A515CA1F13000B2
:1054600005F065FA41EC1C0B53EC1B2B05F0C6FA5A
:1054700041EC190B4848006805F0B6FD41EC1A0BE9
:1054800053EC192B04F0D4FF41EC180B04F09EFFF1
:10549000414908603D480078401E3C4908703B483F
:1054A00000780428C0DA35484078303809283FD2DF
:1054B000DFE800F0050E181F272E353C3D0036486A
:1054C00090ED000ABDEEC00A344880ED000A2FE0DE
:1054D000314890ED000ABDEEC00A314880ED000A67
:1054E00026E036E02C4890ED000A2E4880ED000AB8
:1054F0001EE0294890ED000A2B4880ED000A17E0D5
:1055000017E0254890ED000A284880ED000A0FE0DA
:10551000214890ED000A264880ED000A08E01E4868
:1055200090ED000A234880ED000A01E000E000BF92
:1055300000BF002010490870114908701349087015
:105540009FED1D0A144880ED000A32210B48FAF73E
:1055500085FF0020BDEC0C8B10BD00000044004016
:105560009B00002065000020620000200200002057
:1055700000000020010000209C00002026030020E5
:105580009D0000209A000020640000209E00002062
:105590000000000000002440A0000020880000203F
:1055A0008C00002074000020780000207C00002087
:1055B00080000020840000200000000010B540F2B0
:1055C0002551224800F0E4F800283DD02049097810
:1055D00051B920490978491CC9B21E4A11700A29DB
:1055E00002DD01211A4A11701849091D0988C8B243
:1055F0001949097869B919490978FE2909D1184961
:105600000978FF2905D10121134A11700021154A9B
:1056100011701149097801290FD11349114A1278E3
:10562000885410490978491C0E4A117011460978AE
:10563000082902D10021084A117008490978084A4E
:1056400011700649087000BF10BD000000480040FE
:10565000640100207201002065010020700100201B
:10566000710100206F01002067010020F0B53D4866
:105670000068002801DD002206E03A4800680028A2
:1056800001DA022200E0012237480068002801DD2B
:10569000002306E034480068002801DA022300E015
:1056A000012332480068002801DD002406E02F486D
:1056B0000068002801DA022400E001242C48006878
:1056C000002801DD002506E029480068002801DAED
:1056D000022500E001252748808800F5004086B2B9
:1056E000FF2004F059FEFE2004F056FE1D490F680D
:1056F000002F01DB394600E07942C8B204F04CFECD
:10570000104604F049FE18490F68002F01DB3946A6
:1057100000E07942C8B204F03FFE184604F03CFEB7
:1057200012490F68002F01DB394600E07942C8B208
:1057300004F032FE204604F02FFE0D490F68002FC2
:1057400001DB394600E07942C8B204F025FE284664
:1057500004F022FE301204F01FFEF0B204F01CFE32
:10576000F0BD0000080000200C0000201000002008
:1057700014000020EC00002021B1828942F4005284
:10578000828104E082894DF6FF731A40828170475E
:1057900070B50246002400230025002040F66A165A
:1057A000B14200D100BFC1F3421501F01F03012631
:1057B00006FA03F3012D02D19689334006E0022D4B
:1057C00002D1168A334001E0968A33400C1201263A
:1057D00006FA04F41688344013B10CB1012000E03D
:1057E000002070BDF0B503460024002600250020EF
:1057F00040F66A17B94200D100BF1846C1F34214FF
:1058000001F01F06012707FA06F5012C01D10C3023
:1058100004E0022C01D1103000E014301AB1076806
:105820002F43076002E00768AF430760F0BD000048
:105830002DE9FF4705460E460024A14600BFA046BD
:10584000B08900B100BF2C8A24F44054F08804438E
:105850002C82AC8941F20C608443B08831890843C2
:10586000718908430443AC81AC8A24F44074B08944
:105870000443AC826846FEF737FE2048854202D0DA
:105880001F48854202D1DDF80C9001E0DDF8089058
:10589000A88900F4004040B109EBC90000EB0910F1
:1058A00031684900B0FBF1F707E009EBC90000EBF4
:1058B000091031688900B0FBF1F76420B7FBF0F004
:1058C00004012009642101FB1078A88900F400403C
:1058D00040B1322000EBC800B0FBF1F000F007004F
:1058E000044308E0322000EB08106421B0FBF1F023
:1058F00000F00F0004432C81BDE8FF870010014039
:105900000014014001468888C0F30800704700BFBA
:10591000FEE700001C4909684242914202DA414216
:10592000194A116018490968814201DD1649086069
:10593000164909684242914202DA4142134A116013
:1059400012490968814201DD10490860104909685F
:105950004242914202DA41420D4A11600C49096803
:10596000814201DD0A4908600A49096842429142C0
:1059700002DA4142074A116006490968814201DDA5
:105980000449086070470000380000203C000020F7
:10599000400000204400002030B51C4C24684542E3
:1059A000AC4202DA4442194D2C60184C24688442FF
:1059B00001DD164C2060164C24684D42AC4202DAE0
:1059C0004C42134D2C60124C24688C4201DD104C6B
:1059D0002160104C24685542AC4202DA54420D4D0D
:1059E0002C600C4C2468944201DD0A4C22600A4C65
:1059F00024685D42AC4202DA5C42074D2C60064CE2
:105A000024689C4201DD044C236030BD3800002036
:105A10003C000020400000204400002003B4019816
:105A20004100009850EAC12018BF04204A0D18BF59
:105A300040F0010040F2FF72B2EB515F08BF40F04E
:105A40000200012808BF052002B0704700000000D6
:105A500070B5C1482DED020B2DED0E8B82B0119D5E
:105A600025F000449FEDBEDB9FEDBFEB84423EDBA3
:105A7000A4F140511098A1F17F6108430FD0BC48B8
:105A8000844202DC28D1109830B39DED100B02B097
:105A9000BDEC0E8B02B0BDE8704001F0F1BA9DED97
:105AA000100B53EC1D2B51EC100B04F0A7FF9DEDD8
:105AB000100B41EC180B53EC1E2B51EC100B04F0A7
:105AC0009DFF53EC182B04F0B3FC41EC100B02B01B
:105AD000BDEC0E8B02B070BD0120FAF761FD02B083
