:020000040800F2
:10000000F80D00207102000829350008312A000887
:10001000F73200081D0B00088B5500080000000097
:10002000000000000000000000000000D1450008B2
:10003000291C0008000000007D3D0008D147000891
:100040008B0200088B0200088B0200088B0200085C
:100050008B0200088B0200088B0200088B0200084C
:100060008B0200088B0200088B0200088B0200083C
:100070008B0200088B0200088B0200088B0200082C
:100080008B0200088B0200088B0200088B0200081C
:10009000090D00088B0200088B0200088B02000883
:1000A0008B0200088B0200088B0200088B020008FC
:1000B0005F49000879490008914900088B0200084F
:1000C0008B0200088B0200088B0200088B020008DC
:1000D0008B020008BD4E0008454F00083952000849
:1000E0002D1C00088B0200088B0200088B02000800
:1000F0008B0200088B0200088B0200088B020008AC
:100100008B0200088B020008A94900088B02000836
:100110008B0200088B0200088B0200088B0200088B
:100120008B0200088B0200088B0200088B0200087B
:100130008B0200088B0200088B0200088B0200086B
:100140008B0200088B0200088B0200088B0200085B
:100150008B0200088B0200088B0200088B0200084B
:100160008B0200088B0200088B0200088B0200083B
:100170008B0200088B0200088B0200088B0200082B
:100180008B0200088B02000800F002F800F061F812
:100190000AA090E8000C82448344AAF10107DA45E2
:1001A00001D100F056F8AFF2090EBAE80F0013F0D3
:1001B000010F18BFFB1A43F001031847CCC400001D
:1001C000ECC400000A444FF0000C10F8013B13F09F
:1001D000070408BF10F8014B1D1108BF10F8015BA0
:1001E000641E05D010F8016B641E01F8016BF9D193
:1001F00013F0080F1EBF10F8014BAD1C0C1B09D1EA
:100200006D1E58BF01F801CBFAD505E014F8016B5B
:1002100001F8016B6D1EF9D59142D6D370470000ED
:100220000023002400250026103A28BF78C1FBD8FF
:10023000520728BF30C148BF0B607047642900F0E7
:100240009D80002070471FB50AF061FD1FBD10B5ED
:1002500010BD00F063FA1146FFF7F5FF08F00EF944
:1002600000F081FA03B4FFF7F2FF03BC06F074FD5F
:100270000948804709480047FEE7FEE7FEE7FEE73A
:10028000FEE7FEE7FEE7FEE7FEE7FEE70448054976
:10029000054A064B70470000D54700088901000851
:1002A000F8070020F80D0020F8090020F8090020C8
:1002B000704710B54C1084EA530404D54042C1F194
:1002C000000138BF491E1B4204D55242C3F100034E
:1002D00038BF5B1E00F0E8F814F0804F04D04042B5
:1002E000C1F1000138BF491E14F0004F04D0524242
:1002F000C3F1000338BF5B1E10BD00000FB40449FA
:1003000010B503AA029800F0ABF910BC5DF814FB1D
:10031000940000202DE9F0410E46044600202062A2
:100320002046E168884730B3252805D0D4E901216B
:100330009047206A401CF2E7E16820460027884782
:10034000050018D0A5F14100192802D820354FF436
:1003500000673246294620462760FFF76FFF40B10D
:10036000012804D0F61D26F007060836D8E7361D0A
:10037000D6E72846DAE7206ABDE8F0812DE9F041AA
:100380000646002410687529314616A510D0AFF333
:100390000080002802DA404213A507E031688A078E
:1003A00001D512A502E0490704D511A5012401E0F9
:1003B000AFF3008000210A2206F1240709E0B0FB18
:1003C000F2FCB0FBF2F302FB1C003030785418460C
:1003D000491C0028F3D123462A463046BDE8F041A7
:1003E00000F0E4B8000000002D0000002B00000029
:1003F0002000000040EA010310B59B070FD1042A3A
:100400000DD310C808C9121F9C42F8D020BA19BADF
:10041000884201D9012010BD4FF0FF3010BD1AB144
:10042000D30703D0521C07E0002010BD10F8013B99
:1004300011F8014B1B1B07D110F8013B11F8014BC0
:100440001B1B01D1921EF1D1184610BD02F0FF0313
:1004500043EA032242EA024200F002B84FF00002EF
:100460000429C0F0128010F0030C00F00D81CCF1D3
:10047000040CBCF1020F18BF00F8012BA8BF20F834
:10048000022BA1EB0C0100F0FFB85FEAC17C24BF96
:1004900000F8012B00F8012B48BF00F8012B704732
:1004A000704770477047704753EA020C00F069804C
:1004B0002DE9F04B4FF00006002B1FBFB3FA83F578
:1004C00003FA05F424FA05F65E4012BF1643B2FAA9
:1004D00082F502FA05F4C5F120051EBF22FA05FCDB
:1004E00044EA0C04203556EA044C4FEA144418BF81
:1004F000641C4FF000084FF00009904271EB030CB0
:1005000039D3002919BFB1FA81F701FA07F6B0FA19
:1005100080F700FA07F6C7F120071EBF20FA07FC94
:1005200046EA0C062037B6FBF4FCA7EB0507103FA4
:1005300007F01F0BCBF120060CFA0BFB2CFA06F68A
:1005400044BFB3460026202FA4BF5E464FF0000BE9
:100550005BEA060C08BF4FF0010B19EB0B09ABFB74
:10056000027C48EB0608C01B06FB02CC0BFB03CC4D
:1005700071EB0C01C1E70B46024641464846BDE817
:10058000F08B13B54FF000004FF00001AFF3008087
:10059000BDE81C40704710B500F09CF8006810BD25
:1005A00010B5044600F096F8046010BD2DE9F04740
:1005B0000D4699469246044600F1240801688806D3
:1005C00004D5E06921F01001216000E00120A8427B
:1005D00001DD471B00E00027A1697A1902EB090041
:1005E000081AA0612078C00602D42046AFF300802C
:1005F000002608E0D4E901211AF806009047206A95
:10060000401C761C20624E45F4DB2078C0060AD5DB
:100610002046AFF3008006E0D4E901213020904766
:10062000206A401C2062381EA7F10107F4DC07E0B5
:10063000D4E9012118F805009047206A401C206287
:10064000281EA5F10105F3DC2046AFF300802078D9
:10065000000602D50220BDE8F0870120FBE700007C
:10066000074B70B50D467B4400F03DF80446284624
:1006700000F04CF810B14FF0FF3070BD204670BD57
:100680004F7600004FF0000200B5134694469646A0
:10069000203922BFA0E80C50A0E80C50B1F1200195
:1006A000BFF4F7AF090728BFA0E80C5048BF0CC043
:1006B0005DF804EB890028BF40F8042B08BF7047A1
:1006C00048BF20F8022B11F0804F18BF00F8012B13
:1006D00070470000004870479807002001694A1CD5
:1006E00002610878704700B58FB0CDE90131002173
:1006F000059105497944CDE9031011466846FFF795
:1007000009FE0FB000BD0000E5FFFFFF007B00F019
:100710008000704700487047980700207546FFF733
:10072000F9FFAE4605006946534620F007008546AE
:1007300018B020B5FFF7AAFDBDE820404FF0000635
:100740004FF000074FF000084FF0000B21F00701B9
:10075000AC46ACE8C009ACE8C009ACE8C009ACE8FC
:10076000C0098D4670470446AFF300802046FFF76E
:1007700079FD21B1826842F00102826003E0826863
:1007800022F00102826070470021084A1168084A7D
:100790001140D0E900231A4383681A43C3681A43FF
:1007A0001143044AC2F804137047000004230140B7
:1007B000E030FCFF002001400146C86C80B2704769
:1007C0000246002013680B400BB1012000E000201E
:1007D0007047000030B50246002000235068104CDE
:1007E00020400D790C6844EA05242043506090684D
:1007F0000C4C2040D1E903542C438D682C434D7997
:1008000044EA450420439060D06A20F470000C7DD7
:10081000641EE4B2234340EA0350D06230BD0000BE
:10082000FFFEFFFCFDF7FFC0F0B504460D460020BB
:100830000021092D11DDE068A5F10A0606EB460747
:10084000072606FA07F18843A5F10A0606EB4606D5
:1008500003FA06F10843E0600CE0206905EB450768
:10086000072606FA07F1884305EB450603FA06F169
:1008700008432061072A0FDA606B561E06EB8607D5
:100880001F2606FA07F18843561E06EB860605FA70
:1008900006F10843606322E00D2A0FDA206BD61FB1
:1008A00006EB86071F2606FA07F18843D61F06EBDC
:1008B000860605FA06F10843206310E0E06AA2F11B
:1008C0000D0606EB86071F2606FA07F18843A2F1FC
:1008D0000D0606EB860605FA06F10843E062F0BD58
:1008E000816841F0804181607047000070B586B03A
:1008F00048480068A0F256404000032190FBF1F602
:10090000642E00DD6426444890ED000ADFED430AC2
:1009100020EE200ABDEEC00A10EE104A002C00DACC
:1009200064423F4890ED000ADFED3C0A20EE200AC9
:10093000BDEEC00A10EE105A002D00DA6D423948A3
:100940000078012801D1002400253748007808B933
:10095000012000E000203449087034480078012864
:1009600030D10020324A92ED000ABDEEC00A314A71
:10097000D2ED000AFDEEE00ACDED020A8DED030A8C
:10098000049005902C4890ED000ABDEEC00A2B485B
:10099000D0ED000AFDEEE00ACDED000A8DED010A72
:1009A000274890ED000ABDEEC00A10EE103A254827
:1009B00002682548016825A0FFF7A0FC00201B491C
:1009C000087024E01848007840B90020EAB2E1B28B
:1009D0003346009025A0FFF791FC18E027480096C9
:1009E00090ED000ABDEEC00A10EE103A244890EDDA
:1009F000000ABDEEC00A10EE102A224890ED000A4F
:100A0000BDEEC00A10EE101A1FA0FFF777FC06B06B
:100A100070BD000058000020680000203333333FD1
:100A20006C00002062000020480200209A00002094
:100A300084000020800000207C000020780000203E
:100A4000740000208C000020880000207B43256477
:100A50003A25643A25643A25643A25643A25643A8D
:100A600025643A25643A25647D2400007B41256491
:100A70003A25643A25643A25647D24000C0100205F
:100A800008010020040100207B4225643A25643AD5
:100A900025643A25647D240000B58DB00121084607
:100AA00003F04EFB0121080203F06AFB20200590B1
:100AB00003208DF8180000208DF81B0005A91548AB
:100AC00001F06CFC0121080203F06AFB00214FF4E5
:100AD000807003F065FB00200190049003904FF4B8
:100AE0008030029001A8FFF74FFE002007908DF89C
:100AF00020008DF8210009900B9001208DF8300026
:100B000007A90548FFF766FE01210348FFF731FEFC
:100B10000DB000BD000002400020014000BFFEE714
:100B20002DE9FE4304460D4616461F46DDF8289083
:100B30004FF0000814B10DB106B117B90120BDE89E
:100B4000FE83601EC4B2681EC5B2701EC6B2781E97
:100B500087B20121022003F0F3FA0121480603F0D5
:100B6000FFFA4FF44070019002208DF80800002039
:100B70008DF80A0003208DF8090001208DF80B0084
:100B800001A95E4801F00AFC092208215B4801F036
:100B90004DFC09221146594801F048FC00205849F3
:100BA00008600846006840F00100086008E008F1AD
:100BB00001001FFA80F8B8F1640F01DD0220BEE7E2
:100BC0004F48001D006800F001000028EFD04C489D
:100BD00000684B49086008460068086008460068DD
:100BE00008600846006840F0100008600846006889
:100BF0000860084600680860002041491C31086010
:100C00000846006840EA897008600846006840EAC3
:100C1000046008600846006840EA0550086008461D
:100C2000006840EA064008600846006838430860EB
:100C30003348006820F001003149086009E008F1FC
:100C400001001FFA80F84FF6F070804501DD0320A7
:100C500075E72B48001D006800F001000028EED168
:100C60002848006840F001002649086025481C30EB
:100C7000006820F0010023491C31086021480C3035
:100C8000006840F001001F490C3108601D48001D3C
:100C900000681C49091D08601A4814300068194989
:100CA00014310860002017494031086000211548C0
:100CB0004430016013481C30006840F001001149C5
:100CC0001C3108600F48006800200E4908600122AE
:100CD00002210B4800F082FA14208DF80000012058
:100CE0008DF8010000208DF8020001208DF803002E
:100CF000684602F01BFC002021E7000000040240CF
:100D0000006400400066004010B58AB018A103C915
:100D1000CDE9040102A806A907AB08AACDE9001095
:100D200009A9002000F02CF800240FE0072C04D1C2
:100D30009DF80F00104908700AE002A8005D04A9A0
:100D4000095D884200D003E0601CC4B2072CEDDDD1
:100D500000BF40F221110998884207D10648007867
:100D600020B1064802990160039941600AB010BDA4
:100D70000A0C0F13181E2500B5000020B600002035
:100D8000F0B5DDE90554324E06EB0016366806F084
:100D900004061670167836B92D4E06EB0016366826
:100DA000760D0E6005E02A4E06EB00163668F60852
:100DB0000E60274E06EB0016366806F002061E701F
:100DC000234E06EB0016766806F00F062E70204EB6
:100DD00006EB0016B66826701D4E06EB0016B668C8
:100DE000360A66701A4E06EB0016B668360CA67008
:100DF000174E06EB0016B668360EE670144E06EB7C
:100E00000016F6682671124E06EB0016F668360AD2
:100E100066710F4E06EB0016F668360CA6710C4E86
:100E200006EB0016F668360EE67130B9094E3668E4
:100E300046F02006074F3E6009E0012807D1054E25
:100E4000361D366846F02006024F3F1D3E60F0BD5D
:100E5000B06500400C6400402DE9F04F5F48006829
:100E6000002801DD002406E05C480068002801DA63
:100E7000022400E001245A480068002801DD002512
:100E800006E057480068002801DA022500E0012545
:100E900054480068002801DD002606E0514800683B
:100EA000002801DA022600E001264F4800680028E9
:100EB00001DD002706E04C480068002801DA02271F
:100EC00000E001274948D0ED000A9FED491A9FED47
:100ED000490A00EE810ABCEEC00A10EE100A1FFAA1
:100EE00080F84548D0ED000A9FED411A9FED410A78
:100EF00000EE810ABCEEC00A10EE100A1FFA80F95B
:100F00003E48D0ED000A9FED3A1A9FED3A0A00EEF6
:100F1000810ABCEEC00A10EE100A1FFA80FA3848A7
:100F2000808800F500401FFA80FB3648007808B939
:100F3000012000E000203349087008460078C8B955
:100F40004FEA28203049087081F801804FEA2920B3
:100F5000887081F803904FEA2A20087181F805A073
:100F60004FEA2B20887181F807B04FF4807000F0B1
:100F70004DF830E019490868002801DB014600E01F
:100F80004142214A117010464470154908680028F2
:100F900001DB014600E041421B4A91701046C570DA
:100FA00010490868002801DB014600E04142164A6A
:100FB0001171104646710C490868002801DB014692
:100FC00000E04142104A91711046C771014640F25B
:100FD000011000F01BF8BDE8F08F000008000020B1
:100FE0000C0000201000002014000020040100204C
:100FF0000000C8420060EA46080100200C01002001
:10100000E4000020CE000020BE000020F8B5064617
:101010000D4600240823002211463046009500F0BA
:1010200015F8074601E0601C84B2384600F094F8D9
:10103000072803D040F6FF708442F4DB40F6FF70CF
:10104000844201DB0120F8BD0020FCE7F0B5054635
:101050000E46059C3E48006800F0806008B1002103
:101060000FE03B48006800F0006008B1012108E093
:101070003748006800F0805008B1022101E0FF20ED
:10108000F0BD0027334800EB011007601EB9C5F31F
:101090000A056D0502E025F06045ED002D4800EBE6
:1010A0000110006828432B4F07EB011738602948CF
:1010B00000EB0110006840EA8607264800EB0110AB
:1010C0000760244800EB0110006840EA420721480D
:1010D00000EB0110076003F00F031E4800EB011046
:1010E000406820F00F071B4800EB011047601948CB
:1010F00000EB011040681843164F07EB01177860AA
:10110000E0790006A77940EA0740677940EA0727B7
:10111000207907430F4800EB0110C760E078000614
:10112000A77840EA0740677840EA072027783843E5
:10113000084F07EB0117B860064800EB0110006884
:1011400040F00107034800EB01100760084697E7ED
:1011500008640040806500400146002021B101295B
:1011600013D0022933D121E01B4A126802F0010298
:101170001043194A126802F002021043164A12681C
:1011800002F0806240EA126023E0134A126802F023
:1011900001021043104A126802F0020210430E4A84
:1011A000126802F0006240EA526012E00A4A1268D5
:1011B00002F001021043084A126802F002021043D2
:1011C000054A126802F0805240EA926001E0052070
:1011D00000BF00BF70470000086400401AB14369B7
:1011E0000B43436102E043698B4343617047000056
:1011F0002DE9F0411424B8480078002873D1B7488D
:101200000078012803D0B648007801286CD1B54891
:101210000078012853D1B348C07900F0040008B920
:10122000012101E04FF0FF31AE48C07900F002002B
:1012300008B9012201E04FF0FF32AA48C07900F05E
:10124000010008B9012301E04FF0FF33A54890F8F1
:1012500002C040780CEB0020484300EE100AB8EEC4
:10126000C00AA14880ED000A9E4890F804C0C078EA
:101270000CEB0020504300EE100AB8EEC00A9B4869
:1012800080ED000A974890F806C040790CEB0020EA
:10129000584300EE100AB8EEC00A954880ED000AE7
:1012A00090ED001A9148D0ED000A8F4890ED000AA9
:1012B00001F024FF9FED8F0A8F4880ED000A8948D6
:1012C0000078022843D18748C07900F0080008B9A7
:1012D000012101E04FF0FF318248C07900F00400A5
:1012E00018B9012203E098E032E04FF0FF327D4868
:1012F000C07900F0020008B9012301E04FF0FF338C
:101300007848C07900F0010010B94FF0010801E001
:101310004FF0FF38734840784843DFF8E0C1CCF81D
:101320000000704880785043DFF8D4C1CCF800004A
:101330006C48C0785843DFF8CCC1CCF8000069484D
:10134000007900FB08F0DFF8C0C1CCF8000053E0E2
:101350006E48007801284FD16D480068A0F18006E2
:101360006C480068A0F180076B480068A0F1800518
:101370006042864202DDA64200DA002660428742D1
:1013800002DDA74200DA00276042854202DDA54265
:1013900000DA00256148006870434FF0C80C90FBEC
:1013A000FCF000EE100AB8EEC00A4F4880ED000ACB
:1013B0007842DFF868C1DCF800C000FB0CF04FF0A9
:1013C000C80C90FBFCF000EE100AB8EEC00A4748CB
:1013D00080ED000A6842DFF844C1DCF800C000FB81
:1013E0000CF04FF0C80C90FBFCF000EE100AB8EEC9
:1013F000C00A3F4880ED000A3D4890ED001A3B4886
:10140000D0ED000A384890ED000A01F077FE9FED1C
:10141000390A394880ED000A5BE02F48007801283E
:1014200057D130480078012853D12E48C07900F0B8
:10143000040008B9012101E04FF0FF312948C079CB
:1014400000F0020008B9012201E04FF0FF32254808
:10145000C07900F0010008B9012301E04FF0FF332B
:10146000204890F802C040780CEB0020484300EE82
:10147000100AB8EEC00A1C4880ED000A194890F81E
:1014800004C0C0780CEB0020504300EE100AB8EE08
:10149000C00A164880ED000A124890F806C040794C
:1014A0000CEB0020584300EE100AB8EEC00A1048BA
:1014B00080ED000A90ED001A0C48D0ED000A0A48B1
:1014C00090ED000A01F01AFE9FED0A0A0A4880ED2D
:1014D000000ABDE8F081000062000020B500002095
:1014E0005C010020B6000020680000206C00002095
:1014F0007000002000000000A4010020480000202F
:101500004C00002050000020540000206300002008
:1015100024010020280100202C0100208800002048
:101520002DE9F0412DED108B9B48006809F07EFB02
:1015300041EC1B0B994890ED000B53EC102B51EC38
:101540001B0B09F089FA41EC180B9548006809F06B
:101550006DFB41EC1B0B934890ED000B53EC102BF3
:1015600051EC1B0B09F078FA41EC190B8E4800681E
:1015700009F05CFB41EC1B0B8C4890ED000B53EC2D
:10158000102B51EC1B0B09F067FA41EC1A0B9FED85
:10159000880B53EC102B51EC180B08F07FFF11D186
:1015A0009FED830B53EC102B51EC190B08F076FFD9
:1015B00008D19FED7F0B53EC102B51EC1A0B08F068
:1015C0006DFF2CD053EC1A2B51EC1A0B09F038F8A4
:1015D00041EC1C0B53EC192B51EC190B09F030F8B2
:1015E00041EC1E0B53EC182B51EC180B09F028F8AA
:1015F00041EC1F0B53EC1E2B08F03CFD41EC1D0B86
:1016000053EC1C2B08F036FD41EC1B0BB0EE4B0AE3
:10161000F0EE6B0A05F088FA674880ED000B9FED4D
:10162000640B53EC102B51EC180B08F037FF11D161
:101630009FED5F0B53EC102B51EC190B08F02EFFB4
:1016400008D19FED5B0B53EC102B51EC1A0B08F0FB
:1016500025FF19D051EC1A0B08F0DAFC0BEE100A3A
:1016600051EC190B08F0D4FC0BEE900A51EC180B5E
:1016700008F0CEFC0CEE100AB0EE4B1AF0EE6B0A3E
:10168000B0EE4C0A01F076FD4C48006807F05AFFB6
:101690004B49096800FB01F8404608F081FF41EC26
:1016A0001C0B454890ED000B53EC102B51EC1C0B20
:1016B00008F09CFD41EC1B0B08F02CFF0446414850
:1016C000006807F03FFF3E49096800FB01F840460B
:1016D00008F066FF41EC1C0B374890ED000B53EC13
:1016E000102B51EC1C0B08F081FD41EC1B0B08F09A
:1016F00011FF05463448006807F024FF30490968A7
:1017000000FB01F8404608F04BFF41EC1C0B2A4857
:1017100090ED000B53EC102B51EC1C0B08F066FD08
:1017200041EC1B0B08F0F6FE06462848006807F05F
:1017300009FF2349096800FB01F8404608F030FF23
:1017400041EC1C0B1C4890ED000B53EC102B51ECA2
:101750001C0B08F04BFD41EC1B0B08F0DBFE0746B1
:1017600023462A46314603F055FF0B48006809F02E
:101770005DFA0A4A03C20A48006809F057FA094AA2
:1017800003C20948006809F051FA084A03C2BDECD7
:10179000108BBDE8F08100006800002020020020CE
:1017A0006C00002028020020700000203002002081
:1017B000000000000000000038020020340000207B
:1017C00088000020300000202C000020280000208D
:1017D00038B5002000906B4601227521682006F084
:1017E000A7FD2DA0FEF78AFD9DF80000682810D007
:1017F00000BFBFF34F8F3148006800F4E06030490C
:101800000843001D2D490860BFF34F8F00BF00BF84
:10181000FEE706F0E5FF00283CD1782007F0EAFD5E
:1018200010B91DA0FEF76AFD782006F0BFFE10B9C2
:1018300024A0FEF763FDC82007F08EFD10B92BA091
:10184000FEF75CFD05F0B8FD10B932A0FEF756FDBD
:101850003D4806F0D8FD044606F008F810B93BA054
:10186000FEF74CFD40F2731005F04EFC10B941A09C
:10187000FEF744FDC82005F029FF10B947A0FEF788
:101880003DFD08F0C7F9012007F062FC10B94CA03B
:10189000FEF734FD38BD00006D70755F7365745FD1
:1018A00073656E736F7220636F6D706C6574652005
:1018B0002E2E2E2E2E2E0D0A000000000CED00E024
:1018C0000000FA056D70755F636F6E66696775720B
:1018D000655F6669666F20636F6D706C6574652007
:1018E0002E2E2E2E2E2E0D0A000000006D70755F1C
:1018F0007365745F73616D706C655F726174652090
:10190000636F6D706C657465202E2E2E2E2E2E0D3D
:101910000A000000646D705F6C6F61645F6D6F74CE
:10192000696F6E5F6472697665725F6669726D7702
:1019300061726520636F6D706C657465202E2E2E4C
:101940002E2E2E0D0A00000014010020646D705F21
:101950007365745F6F7269656E746174696F6E2010
:10196000636F6D706C657465202E2E2E2E2E2E0DDD
:101970000A000000646D705F656E61626C655F6691
:1019800065617475726520636F6D706C6574652038
:101990002E2E2E2E2E2E0D0A00000000646D705F7C
:1019A0007365745F6669666F5F7261746520636FEB
:1019B0006D706C657465202E2E2E2E2E2E0D0A0055
:1019C0006D70755F7365745F646D705F737461745F
:1019D0006520636F6D706C657465202E2E2E2E2E23
:1019E0002E0D0A0010B53348007800BB01203249A3
:1019F00091ED000AB8EEC00A00F0C2F802202F49AB
:101A000091ED000AB8EEC00A00F0BAF803202C49A4
:101A100091ED000AB8EEC00A00F0B2F8042029499E
:101A200091ED000AB8EEC00A00F0AAF81FE001200C
:101A3000254991ED000AB8EEC00A00F0A1F8022095
:101A4000224991ED000AB8EEC00A00F099F803208F
:101A50001F4991ED000AB8EEC00A00F091F8042089
:101A60001C4991ED000AB8EEC00A00F089F8042084
:101A700000F03AF81849087000201849087011E081
:101A800000BF1748008800F040000028F9D0154832
:101A900012490978405C1249888010480078401C3F
:101AA0000E4908700D4800780B4909788842E7DB39
:101AB00010BD000062000020080000200C00002083
:101AC0001000002014000020180000201C0000203E
:101AD00020000020240000204102002040020020BD
:101AE000001001406C07002001460A2900DC09B9FA
:101AF000002070472420214A10700B293CD2DFE8D7
:101B000001F03B060B10151A1F24292F3500052064
:101B10001A4A50710620ECE70920184A50720A2030
:101B2000E7E70D20154A50730E20E2E71120134A13
:101B300050741220DDE71520104A50751620D8E7A2
:101B400019200E4A50761A20D3E71D200B4A5077F1
:101B50001E20CEE72120094A82F821002220C8E772
:101B60002520064A82F825002620C2E72920034ABC
:101B700082F829002A20BCE70020BAE76C07002081
:101B800011B52DED020B04460A2C00DC04B91EBD74
:101B90000B2C43D2DFE804F042060C12181E242A54
:101BA00030363C0001221F49684600F0E9FB35E071
:101BB00005221C49684600F0E3FB2FE00922194981
:101BC000684600F0DDFB29E00D221649684600F06A
:101BD000D7FB23E011221349684600F0D1FB1DE03A
:101BE00015221049684600F0CBFB17E019220D4979
:101BF000684600F0C5FB11E01D220A49684600F066
:101C0000BFFB0BE021220749684600F0B9FB05E065
:101C100025220449684600F0B3FB00BF00BF00BFA7
:101C2000B5E700006C0700207047000010B5BD4804
:101C3000006800287DD14FF40040BB490860BB48D4
:101C4000007808B9012000E00020B8490870B848C1
:101C5000007801280BD1B7480078401CC0B2B549C4
:101C600008700A2803D100200870B1490870AF48F5
:101C70000078012815D1B048007860B9AF480078E5
:101C800048B9AF480078012805D1AE48AE490A6886
:101C900002604968416002F01DFB01F01DFA00205E
:101CA00010BD01F019FA022002F060FCA74908609B
:101CB000A748006809680844A5490860032002F0A5
:101CC00055FCA4490860A448006809680844A24972
:101CD0000860042002F04AFC4042A0490860A04885
:101CE0000068096808449E490860052002F03EFC2F
:101CF00040429C4908609C480068096808449A4929
:101D0000086002F0E7FA642001F08CFA00F04EFE61
:101D100000EE100AB8EEC00A9448D0ED000A30EE8A
:101D2000200A80ED000A924890ED000AF7EE000AC2
:101D300000E0BBE030EE200A80ED000ADFED8D0A06
:101D4000B4EE600AF1EE10FA15D1884890ED000A61
:101D5000DFED880A80EE201ABDEEC10A864880EDCC
:101D6000000A9FED860A814880ED000A9FED830AF4
:101D70007F4880ED000A82480068042807D10120CE
:101D80006E49087000207F4908706D4908707D48D1
:101D90000078012807D06A480078012803D06748F6
:101DA0000078012801D1FFF723FA7748006800285E
:101DB00006DD754800680F2802DA0F2072490860B6
:101DC0006D48006803F056F800286FD16F4800781E
:101DD00068BB6C48007848B95948007830B9574812
:101DE000007818B96948007800F05CFB6848016821
:101DF0005648006801F030F8664908606648016896
:101E00005448006801F072F8644908606448016849
:101E10005248006801F0B4F86249086062480168FD
:101E20005048006801F0F6F8604908606AE05548DB
:101E3000007880B94248007868B94048007850B9C5
:101E40005B48007818B905F059F85A4908704F48AE
:101E5000007800F027FB4E4801683D48006801F01B
:101E60008FFF00124B4908604B4801683A480068F0
:101E700001F0FEFF001249490860494801683848EE
:101E8000006802F06DF80012464908604648016893
:101E90003548006802F0DCF800124449086029481F
:101EA0000078022803D0FFF73BFB07E038E0364814
:101EB000036802680168006803F0ACFB35480068FD
:101EC00041422248006800F0C7FF324908603348A9
:101ED000006841421F48006801F008F82F49086077
:101EE0003048006841421D48006801F049F82D491A
:101EF00008602E48006841421A48006801F08AF8DC
:101F00002A4908604FF4FA5003F042FB274803685F
:101F100024480268214801681E48006802F0F0FB6E
:101F20000020BDE63C824042143C01409801002064
:101F300061000020600000205D010020630000209F
:101F40005C010020B60000205F0100200800002096
:101F5000180000200C0000201C00002010000020B1
:101F6000200000201400002024000020A0010020F8
:101F70009C0100200000C842580000200000000022
:101F800034010020B50000208800002062000020FD
:101F900048000020380000204C0000203C000020B9
:101FA0005000002040000020540000204400002089
:101FB0006500002002000020002123498279002AC8
:101FC0003AD00A46126803689A430B461A600A1D03
:101FD000126803689A430B1D1A60027911440A685B
:101FE00003681A430A60184A0832126803689A4361
:101FF000154B08331A601A1D126803689A43124B76
:102000000C331A604279102A0ED11A1F1268036825
:102010001A430D4B08331A601A1D126803681A43DD
:10202000094B0C331A600DE00749427911440A68E4
:1020300003681A430A6005E0027911440A680368DC
:102040009A430A6070470000003C014000B589B027
:102050000121084602F084F80121084602F070F8D8
:102060000121022002F06CF84FF4004001900220A0
:102070008DF8080001208DF80A0003208DF8090072
:1020800001208DF80B0001A92B4800F087F90820EA
:10209000019002208DF8080001208DF80A0003202D
:1020A0008DF8090001208DF80B0001A9234800F0EC
:1020B00075F901220F21204800F0B8F9012203210F
:1020C0001E4800F0B3F906A802F0CAFE0020ADF8E1
:1020D00018004FF6FF7007900020ADF82000ADF813
:1020E0001A0006A94FF0804002F078FE00231A463D
:1020F00003214FF0804002F08DFC03A802F0E2FCC7
:102100000020ADF8140003A94FF0804002F0A3FCBA
:102110000121880702F060FC01221146900702F0BD
:10212000DAFC00214FF0804002F029FE01218807EF
:1021300002F055FC09B000BD00000240000402405E
:1021400000B589B00121022002F00AF801210846F9
:1021500001F0F6FFC020019002208DF80800012058
:102160008DF80A0003208DF8090001208DF80B007E
:1021700001A9214800F012F9022206211E4800F0B0
:1021800055F9022207211C4800F050F906A802F078
:1021900067FE0020ADF818004FF6FF700790002092
:1021A000ADF82000ADF81A0006A9144802F016FE9A
:1021B00000231A460321114802F02CFC03A802F068
:1021C00081FC0020ADF8140003A90C4802F043FC88
:1021D00001210A4802F000FC01221146074802F0E2
:1021E0007AFC0021054802F0CAFD0121034802F0F3
:1021F000F6FB09B000BD00000000024000040040F2
:1022000000B589B00121042001F0AAFF01210220BC
:1022100001F096FFC020019002208DF808000120F7
:102220008DF80A0003208DF8090001208DF80B00BD
:1022300001A9214800F0B2F8022206211E4800F050
:10224000F5F8022207211C4800F0F0F806A802F079
:1022500007FE0020ADF818004FF6FF700790002031
:10226000ADF82000ADF81A0006A9144802F0B6FD3A
:1022700000231A460321114802F0CCFB03A802F008
:1022800021FC0020ADF8140003A90C4802F0E3FB88
:1022900001210A4802F0A0FB01221146074802F082
:1022A0001AFC0021054802F06AFD0121034802F0F2
:1022B00096FB09B000BD0000000402400008004089
:1022C00000B589B00121082001F04AFF012108462C
:1022D00001F036FF0320019002208DF80800012054
:1022E0008DF80A0003208DF8090001208DF80B00FD
:1022F00001A9214800F052F8022200211E4800F0F6
:1023000095F8022201211C4800F090F806A802F07E
:10231000A7FD0020ADF818004FF6FF7007900020D1
:10232000ADF82000ADF81A0006A9144802F056FDD9
:1023300000231A460321114802F06CFB03A802F0A7
:10234000C1FB0020ADF8140003A90C4802F083FB88
:1023500001210A4802F040FB01221146074802F021
:10236000BAFB0021054802F00AFD0121034802F0F2
:1023700036FB09B000BD000000000240000C004028
:1023800030B503461C788C545D78541C0D559D78EF
:10239000941C0D55DD78D41C0D5530BDF0B50A46A2
:1023A00000210023002400BF3DE0012505FA01F3D0
:1023B000156805EA03049C4234D105684F000326E2
:1023C000BE40B543056015794E00B54006683543FB
:1023D00005601579012D02D01579022D16D1856879
:1023E0004F000326BE40B543856055794E00B54089
:1023F000866835438560456801268E40B543456053
:10240000456896798E40B6B235434560C5684F0041
:102410000326BE40B543C560D5794E00B540C668B9
:102420003543C560491C1029BFD3F0BDF0B500236A
:1024300000244D07ED0E02FA05F3CE1000F1200541
:1024400055F826504E07F70E0F26BE40B543CF1065
:1024500000F1200646F82750CE1000F1200555F86F
:10246000265045EA0304CE1000F1200545F8264029
:10247000F0BD000010B5044607230122214608489C
:10248000FEF7D2F90648FEF72BFA00BF02210448F6
:10249000FEF796F90028F9D00148FEF78DF910BD36
:1024A0000020014000B50146B6EE000AF0EE402AD9
:1024B0000122002972D1FB48007809286FD2DFE899
:1024C00000F07F05132331414F5F6F009FEDF60A47
:1024D000F64880ED000AF64890ED000A30EE220A38
:1024E00080ED000A01227FE0F04890ED000A30EE16
:1024F000220A80ED000AEE4890ED000A30EE220A32
:1025000080ED000A01226FE0E84890ED000A30EE0D
:10251000220A80ED000A9FEDE40AE54880ED000AFA
:10252000012261E0E14890ED000A30EE220A80EDE0
:10253000000ADF4890ED000A30EE620A80ED000AE2
:10254000012251E09FEDD80AD84880ED000AD84812
:1025500090ED000A30EE620A80ED000A012243E0AD
:10256000D24890ED000A30EE620A80ED000AD048B1
:1025700090ED000A30EE620A80ED000A012233E09D
:10258000CA4890ED000A30EE620A80ED000A9FED25
:10259000C60AC74880ED000A012225E0E6E00FE008
:1025A000C24890ED000A30EE620A80ED000AC04891
:1025B00090ED000A30EE220A80ED000A012213E0BD
:1025C0000022BA4890ED000ADFEDBA0A80EE201A28
:1025D00080ED001AB64890ED000ADFEDB60A80EEF5
:1025E000201A80ED001A00BF00BF02BBB24800787D
:1025F00001280CD1B14890ED000A30EE620A80ED5E
:10260000000A9FEDA90AAE4880ED000A1AE0AD4825
:10261000007801280CD1A94890ED000A30EE220A7A
:1026200080ED000A9FEDA00AA54880ED000A09E0B0
:102630009FED9D0AA14880ED000A9FEDA30AA048E6
:1026400080ED000A012A09D100209B4B18709D4B98
:1026500018709FED950A994880ED000A9348D0EDD7
:10266000000A9A480068404200EE100AB8EEC00A1C
:10267000F4EEC00AF1EE10FA09D294480068404224
:1026800000EE100AB8EEC00A884880ED000A8748BC
:10269000D0ED000A8D4890ED000AB8EEC00AF4EEC5
:1026A000C00AF1EE10FA06DD90ED000AB8EEC00A9D
:1026B0007E4880ED000A7E48D0ED000A834800681D
:1026C000404200EE100AB8EEC00AF4EEC00AF1EE85
:1026D00010FA09D27D480068404200EE100AB8EEB8
:1026E000C00A734880ED000A7148D0ED000A7748AF
:1026F00090ED000AB8EEC00AF4EEC00AF1EE10FA4E
:1027000006DD90ED000AB8EEC00A694880ED000AC7
:102710006A48D0ED000A6D480068404200EE100A99
:10272000B8EEC00AF4EEC00AF1EE10FA09D267481A
:102730000068404200EE100AB8EEC00A5F4880ED23
:10274000000A5E48D0ED000A604890ED000AB8EE3D
:10275000C00AF4EEC00AF1EE10FA06DD90ED000AB0
:10276000B8EEC00A554880ED000A08E10129FCD105
:102770004C4800780B2876D2DFE800F0FF061735CA
:10278000466476AEBFDDEE004948D0ED000A504801
:1027900090ED000AB8EEC00A30EE800A444880EDA1
:1027A000000A01204B4B1870E8E04048D0ED000AC9
:1027B000474890ED000AB8EEC00A30EE800A3B4868
:1027C00080ED000A0220434B18703948D0ED000A12
:1027D0003F4890ED000AB8EEC00A30EE800A344857
:1027E00080ED000ACAE03148D0ED000A384890ED8B
:1027F000000AB8EEC00A30EE800A2C4880ED000ACC
:102800000320344B1870B9E02848D0ED000A304856
:1028100090ED000AB8EEC00A30EE800A234880ED41
:10282000000A04202B4B18702148D0ED000A2848DC
:1028300090ED000AB8EEC00A30EEC00A1C4880EDE8
:10284000000A9BE01A48D0ED000A214890ED000AEA
:10285000B8EEC00A30EEC00A154880ED000A052027
:102860001C4B18708AE088E01048D0ED000A184828
:1028700090ED000AB8EEC00A30EEC00A0B4880EDB9
:10288000000A0620134B18700948D0ED000A1048C2
:1028900090ED000AB8EEC00A30EEC00A044880EDA0
:1028A000000A6BE002000020000000006800002029
:1028B0006C0000206666863F00000020700000204B
:1028C000A4010020010000206F12833B880000203B
:1028D0008C000020990100202F48D0ED000A2F48DD
:1028E00090ED000AB8EEC00A30EEC00A2A4880ED2A
:1028F000000A07202A4B187040E02748D0ED000A54
:10290000264890ED000AB8EEC00A30EEC00A224810
:1029100080ED000A0820224B18702248D0ED000AF2
:102920001E4890ED000AB8EEC00A30EE800A1D483D
:1029300080ED000A22E01C48D0ED000A174890ED17
:10294000000AB8EEC00A30EEC00A174880ED000A4F
:102950000920134B187011E01348D0ED000A0F48FE
:1029600090ED000AB8EEC00A30EE800A0E4880ED05
:10297000000A0A200A4B187000E000BF00BF0A4896
:1029800090ED001A0748D0ED000A034890ED000AC8
:1029900000F0B4FB00BD0000680000208C000020A7
:1029A000990100206C0000207000002070B52DED12
:1029B0000A8B0520FFF75EFD054607F0F1FD41ECAF
:1029C0001C0B9FED130B53EC102B07F039FE41EC61
:1029D0001B0B9FED110B53EC102B07F031FE41EC5C
:1029E0001A0B9FED0F0B53EC102B07F029FE41EC57
:1029F000190B9FED0D0B53EC102B07F0F7FB41EC7F
:102A0000180B07F087FD04462046BDEC0A8B70BD0D
:102A10006666666666660A400000000000002640A2
:102A20000000000000005940000000000000B0401D
:102A300000BFFEE770B505460E46002400F0F4F82E
:102A4000284600F0BFF8641C00F046F9304600F05C
:102A5000B9F8641C00F040F900F0E6F8691CC8B24F
:102A600000F0B0F8641C00F037F9002000F074F8B2
:102A7000044600F00DF9204670BD000010B500209E
:102A80000E4908600E48006820F440000C490860B8
:102A90000846006840F48000086000200949C1F839
:102AA000AC02012004F0C6FA01200449086004F0D9
:102AB000C1FA00200349C1F8A80210BDA882404213
:102AC00000040240008040421CB50121022001F0B8
:102AD00037FB4FF44060009001208DF80400002087
:102AE0008DF8060003208DF8050001208DF8070001
:102AF00069460548FFF752FC4FF4806002491A31DD
:102B00000880400008801CBD0004024010B5002071
:102B10000E4908600E48006820F440000C49086027
:102B20000846006840F48000086001200949C1F8A7
:102B3000AC0204F07FFA01200449086004F07AFA3C
:102B400000200449C1F8A80210BD0000A88240423C
:102B5000000402400080404270B50546002416483B
:102B6000006820F4400014490860084600680860C6
:102B7000002616E0002011490860022004F05AFAED
:102B800001200F49C1F8A8026006040E0B487C38EA
:102B9000006808B1601CC4B2022004F04BFA701C3B
:102BA000C6B2082EE6DB15B1FFF768FF01E0FFF7BC
:102BB000ADFF204670BD000000040240A8824042E4
:102BC0000080404270B504461448006820F440007C
:102BD000124908600846006840F480000860002040
:102BE0000F490860002516E0E0090D49091D08603D
:102BF0006006040E012004F01DFA01200949C1F805
:102C0000A80204F017FA002005490860012004F02A
:102C100011FA681CC5B2082DE6DB70BD0004024045
:102C2000A88240420080404210B51648006820F457
:102C30004000144908600846006840F480000860BD
:102C40000120114908601148D0F82C0208B9002071
:102C500010BD01200C49091F086004F0EBF90020A9
:102C60000A49C1F8AC0208488038006808B1002061
:102C7000EEE7012004F0DEF900200349091F086097
:102C80000120E5E700040240AC824042008040425F
:102C900010B50E48006820F440000C490860084652
:102CA000006840F480000860002009490860094974
:102CB000C1F8AC02012004F0BDF90120044908600C
:102CC0000449C1F8AC0204F0B5F910BD000402409B
:102CD000A88240420080404210B500241448006899
:102CE00020F440001249086008460068086001208E
:102CF0001049086004F09EF901200F49C1F8A802AC
:102D000004F098F90AE0601CC4B2322C03DDFFF72E
:102D1000BFFF002010BD012004F08CF90548803869
:102D200000680028EFD10349091F08600120F1E77E
:102D300000040240AC8240420080404270B505462B
:102D40000E46144631462846FFF774FE20700120D7
:102D500070BDF8B506460F4614461D466A4639460C
:102D60003046FFF7EBFF2DB10120A0409DF8001089
:102D7000084305E00120A0409DF8001021EA000072
:102D8000C0B200909DF800203946304600F036F879
:102D9000F8BD2DE9F8430746884614461D46089EAF
:102DA0006A4641463846FFF7C9FF28B3601CFF2139
:102DB00001FA00F0C4F108012944491EFF220A412A
:102DC000104300F0FF09C5F1080006FA00F0C6B292
:102DD000C4F1070006419DF8000000EA09000090D8
:102DE0009DF80000304300909DF800204146384691
:102DF00000F004F8BDE8F8830020FBE737B504468F
:102E00000D4602AB01222946204600F001F83EBDE6
:102E10002DE9F04180460D4616461F460024FFF777
:102E200003FF4046FFF7CEFEFFF756FF2846FFF7A9
:102E3000C9FEFFF751FF00BF06E0385DFFF7C2FE95
:102E4000FFF74AFF601CC4B2B442F6DBFFF720FF75
:102E50000120BDE8F08100000246501A1D4B1860A9
:102E6000184600681C4B1B68C01A00EE100AB8EE2A
:102E7000C00A1A48D0ED000A20EE200A184890ED4A
:102E8000001A1448D0ED000AF8EEE00A01EE200A1C
:102E90001448D0ED000AF8EEE00A30EE200ABDEE4C
:102EA000C00A80ED000A006842F2D003984202DDB9
:102EB00018460C4B18600B4800680B4B984202DA1E
:102EC0001846084B186003480068034B1860054813
:102ED00000687047AC010020B40100208000002091
:102EE00084000020B001002030DFFFFF0246501AAE
:102EF0001D4B1860184600681C4B1B68C01A00EE7A
:102F0000100AB8EEC00A1A48D0ED000A20EE200AD6
:102F1000184890ED001A1448D0ED000AF8EEE00AC7
:102F200001EE200A1448D0ED000AF8EEE00A30EE77
:102F3000200ABDEEC00A80ED000A006842F2D0030C
:102F4000984202DD18460C4B18600B4800680B4B8A
:102F5000984202DA1846084B186003480068034B91
:102F60001860054800687047B8010020C0010020C3
:102F70008000002084000020BC01002030DFFFFF23
:102F80000246501A1D4B1860184600681C4B1B68FF
:102F9000C01A00EE100AB8EEC00A1A48D0ED000AB6
:102FA00020EE200A184890ED001A1448D0ED000ACF
:102FB000F8EEE00A01EE200A1448D0ED000AF8EE1F
:102FC000E00A30EE200ABDEEC00A80ED000A00687B
:102FD00042F2D003984202DD18460C4B18600B48B1
:102FE00000680B4B984202DA1846084B18600348F9
:102FF0000068034B1860054800687047C401002052
:10300000CC0100208000002084000020C8010020A6
:1030100030DFFFFF0246501A1D4B1860184600684B
:103020001C4B1B68C01A00EE100AB8EEC00A1A4802
:10303000D0ED000A20EE200A184890ED001A14483E
:10304000D0ED000AF8EEE00A01EE200A1448D0EDB7
:10305000000AF8EEE00A30EE200ABDEEC00A80ED6C
:10306000000A006842F2D003984202DD18460C4B79
:1030700018600B4800680B4B984202DA1846084B60
:10308000186003480068034B1860054800687047E3
:10309000D0010020D8010020800000208400002002
:1030A000D401002030DFFFFF1CB50121022001F018
:1030B00047F84FF4A040009000208DF80400032052
:1030C0008DF8050001208DF8070069460148FFF7DB
:1030D00065F91CBD0004024010B5642003F0A6FE93
:1030E0000446022C07D10448007808B9012000E00A
:1030F00000200149087010BD04000020F1EE401AC4
:1031000071EEA01A9FED162A41EE421AFDEEE11A69
:103110001448C0ED001A70EE201A9FED112A41EEFE
:10312000421AFDEEE11A1048C0ED001AF1EE401A05
:1031300071EEA01A9FED0A2A41EE021AFDEEE11A85
:103140000A48C0ED001A70EE201A9FED052A41EEE4
:10315000021AFDEEE11A0648C0ED001A70470000A1
:103160001058393E480000204C000020500000203C
:1031700054000020F1EE401A71EEA01A9FED162ABD
:1031800041EE421AFDEEE11A1448C0ED001A70EE4D
:10319000201A9FED112A41EE421AFDEEE11A104865
:1031A000C0ED001AF1EE401A71EEA01A9FED0A2A46
:1031B00041EE021AFDEEE11A0A48C0ED001A70EE67
:1031C000201A9FED052A41EE021AFDEEE11A06488B
:1031D000C0ED001A704700001058393E280000204A
:1031E0002C00002030000020340000201CB50121FC
:1031F000022000F0A5FF4FF40050009001208DF850
:10320000040000208DF8060003208DF80500012041
:103210008DF8070069460248FFF7C0F81CBD0000A2
:103220000004024018B90021094A11600FE0094961
:103230000968491C074A1160814208D1044909689C
:10324000C943054AC2F8B4120021024A116070470E
:10325000B4824042E00000200080404210B50220CD
:1032600000F010F8032000F021F8002000F014F81E
:10327000002000F037F8002000F02BF8002000F0CC
:103280001FF810BD38B50446032302226B21D0205D
:103290000094FFF77EFD38BD38B5044602230422B2
:1032A0001C21D0200094FFF774FD38BD38B50446CA
:1032B000022304221B21D0200094FFF76AFD38BDB1
:1032C00010B50446234601223721D020FFF741FDE7
:1032D00010BD10B50446234605226A21D020FFF711
:1032E00038FD10BD10B50446234606226B21D020C0
:1032F000FFF72FFD10BD00BFFEE7000000B585B051
:103300000121022000F01CFF0121880300F038FF9A
:103310000F21012001F05EF94FF4004003900020DE
:103320008DF8100003208DF8110000208DF8130097
:1033300003A91048FFF732F84FF400400190002035
:103340008DF808000C208DF8090001208DF80A0086
:1033500001A8FEF731FE28208DF8000001208DF82D
:1033600001008DF802008DF80300684600F0DEF8D9
:1033700005B000BD000402401CB50121062000F08C
:10338000DFFE0220009001208DF8040000208DF85F
:10339000060003208DF8050001208DF8070069461E
:1033A0002248FEF7FBFF012000908DF8040000206A
:1033B0008DF8060003208DF8050001208DF8070028
:1033C00069461A48FEF7EAFF1020009001208DF8A8
:1033D000040000208DF8060003208DF80500012070
:1033E0008DF8070069461248FEF7D8FF20200090AC
:1033F00001208DF8040000208DF8060003208DF8D0
:10340000050001208DF8070069460948FEF7C6FF50
:103410000120064918310880022008801020044944
:1034200018310880202008801CBD000000040240E4
:103430000008024030B58BB005460C460121022041
:1034400000F09EFE0121042000F07AFE03220621F6
:103450003348FEF7EBFF032207213148FEF7E6FF72
:10346000032208212E48FEF7E1FF032209212C4800
:10347000FEF7DCFF4FF47070099002208DF82800F1
:1034800000208DF82A0003208DF8290001208DF8F6
:103490002B0009A92248FEF781FF0795ADF81840D7
:1034A0000020ADF82000ADF81A0006A91D4801F073
:1034B00095FC6020ADF804000120ADF80600002066
:1034C000ADF8100001A9174801F00EFB01A915483D
:1034D00001F052FB01A9134801F0AEFB01A911480C
:1034E00001F004FC01210F4801F085FA08210D4884
:1034F00001F038FB08210B4801F090FB0821094836
:1035000001F0EAFB0821074801F02CFC01210548E5
:1035100001F056FA0121034801F061FA0BB030BD09
:1035200000080240000401407047000070B500210F
:1035300000230F22C4781CB3174C246804F4E06401
:10354000C4F5E064C4F30721C1F10404E3B20A4105
:1035500044789C40E1B28478144021430C07210E4A
:103560000E4C05786155047804F01F050124AC4029
:1035700005786D11AD0005F1E025C5F8004109E0C1
:10358000047804F01F050124AC40054D067876113F
:1035900045F8264070BD00000CED00E000E400E0BE
:1035A00080E100E002490143024A116070470000D7
:1035B0000000FA050CED00E030B500240CE0002519
:1035C00006E00020074901EBC5010855681CC5B29B
:1035D000802DF6DB601CC4B2082CF0DB00F0DAF8BA
:1035E00030BD000050030020F0B5144600267F28AF
:1035F00001DC3F2900DDF0BD0B46CF1701EB57770B
:10360000FF10C7F10707FAB2CF1701EB5777FF108A
:10361000A1EBC707FDB2C5F107070123BB40DEB22E
:103620004CB10A4B03EBC0039B5C3343074F07EBE2
:10363000C007BB5408E0054B03EBC0039B5CB343DE
:10364000024F07EBC007BB5400BFD4E75003002074
:103650001CB50121042000F073FD0121080700F0D2
:103660007FFD012000F084FB002000F01DFE4EF2E3
:103670000100009001208DF8040000208DF8060064
:103680008DF805008DF8070069463F48FEF786FE75
:1036900001203D491A31088040030880400008801D
:1036A00040000880002039490860642003F0A6FC2F
:1036B00001203749C1F8BC020021AE2000F050F9CA
:1036C0000021D52000F04CF90021502000F048F9ED
:1036D0000021A82000F044F900213F2000F040F92B
:1036E0000021D32000F03CF90021084600F038F911
:1036F0000021402000F034F900218D2000F030F945
:103700000021142000F02CF90021202000F028F9DD
:103710000021022000F024F90021A12000F020F96E
:103720000021C02000F01CF90021DA2000F018F977
:103730000021122000F014F90021812000F010F97E
:103740000021EF2000F00CF90021D92000F008F949
:103750000021F12000F004F90021DB2000F000F945
:103760000021302000F0FCF80021A42000F0F8F83F
:103770000021A62000F0F4F80021AF2000F0F0F8BE
:10378000FFF71AFF1CBD000000080240BC024142C6
:103790000000414230B500241CE004F1B001C8B281
:1037A000002100F0DDF80021084600F0D9F80021E2
:1037B000102000F0D5F8002508E0084901EBC5010C
:1037C000085D012100F0CCF8681CC5B2802DF4DB47
:1037D000601CC4B2082CE0DB30BD000050030020A8
:1037E0002DE9F04F80460C4615461E46A346A5F12E
:1037F0002000C5B200273EE00C2E07D105EB4500A6
:103800001F4901EB800010F8079004E01D4800EB11
:10381000051010F807904FF0000A26E009F080002C
:1038200028B121464046099AFFF7DEFE09E00998D3
:1038300008B9012000E00020024621464046FFF77B
:10384000D3FE4FEA49604FEA1069601CC4B2A4EB92
:103850000B00B04205D15C4608F1010000F0FF0802
:1038600006E00AF1010000F0FF0ABAF1080FD5DB0B
:1038700000BF781CC7B2B742BEDBBDE8F08F0000C6
:1038800012AE000886B200082DE9FF4F81B007464E
:1038900091461E460E9D4FF0000A002439E0301B71
:1038A000401EC1B20A2005F055FEB9FBF0F00A2116
:1038B000B0FBF1F201FB1208BAF1000F16D1701E35
:1038C000A04213DDB8F1000F0ED10120AB4605EB8D
:1038D000DB71491001FB04710090C8B22B46202215
:1038E0000299FFF77DFF12E04FF0010A0120AB467D
:1038F00005EBDB71491001FB04710090C8B208F1BF
:103900003001CAB22B460299FFF76AFF00BF601C64
:10391000C4B2B442C3DB05B0BDE8F08F78B505464C
:103920000E46144618E07A2D03DD002506F110003E
:10393000C6B23A2E04DD002005460646FFF73CFEDF
:103940000120009022780C2331462846FFF748FFDB
:1039500005F10800C5B2641C20780028E3D178BDC9
:1039600010B50A461AB10123124C236002E000236D
:10397000104C2360002116E000230E4C34342360E9
:1039800000F080031BB10123241D236003E000230A
:10399000084C383423600123064C3434236043063A
:1039A000180E4B1CD9B20829E6DB0123014C236019
:1039B00010BD00008002414201460148405C704752
:1039C00050070020002004E00021034A1154411C4C
:1039D000C8B20928F8DB70475007002038B5044604
:1039E0000120009000201D494870012000902DE02A
:1039F000BDF80000204018B101201949086002E01C
:103A0000002017490860012016490860052003F0CE
:103A100011FB00201449C1F89002052003F00AFBB5
:103A200001201149C1F890021048D0F8080230B1C5
:103A30000A484078BDF80010084308494870BDF8AE
:103A400000004FF6FF7101EA40000090BDF8000051
:103A5000FF28CDDD102003F0EDFA38BD500700201F
:103A60008402414290024042000040420000414234
:103A700010B5FFF7A7FF00F0C1F80F48C0780E4956
:103A8000097940EA01200D49088000240FE00C4824
:103A900010F81400401E012101FA00F007490988BE
:103AA000084010B9601CC0B210BD601CC4B2102C1C
:103AB000EDDB0020F8E7000050070020380100206F
:103AC0003C01002010B5002013490860102003F0CD
:103AD000B1FA0120FFF782FF4320FFF77FFF0020AC
:103AE000FFF77CFF0120FFF779FF0020FFF776FF4B
:103AF0000020FFF773FF0020FFF770FF0020FFF7A3
:103B00006DFF0020FFF76AFF01200449C1F88C0215
:103B1000102003F08FFA10BD8C0241420000414298
:103B200010B5002013490860102003F083FA01202B
:103B3000FFF754FF4320FFF751FF0020FFF74EFF30
:103B40000020FFF74BFF5A20FFF748FF5A20FFF7EE
:103B500045FF5A20FFF742FF5A20FFF73FFF5A2048
:103B6000FFF73CFF01200449C1F88C02102003F04C
:103B700061FA10BD8C024142000041421CB5012196
:103B8000052000F0DDFA0420009000208DF80400EC
:103B900003208DF8050001208DF8070069461548BF
:103BA000FEF7FCFB1020009001208DF8040000209F
:103BB0008DF8060002208DF8050001208DF8070021
:103BC00069460D48FEF7EAFB0A20009001208DF8B7
:103BD000040000208DF8060002208DF80500012069
:103BE0008DF8070002208DF8050069460148FEF7B0
:103BF000D5FB1CBD00080240000002401CB500209F
:103C0000019001200090002025490860254908788E
:103C1000FFF7E4FE23494878FFF7E0FE0220019019
:103C200035E00120009026E001201F4908600520B2
:103C300003F000FA00201D49C1F89002052003F0AE
:103C4000F9F901201949C1F890021948D0F8080281
:103C500050B118489DF80410405CBDF800100843AE
:103C600014499DF804208854BDF800004FF6FF71F8
:103C700001EA40000090BDF80000FF28D4DD1020CC
:103C800003F0D8F99DF80400401CC0B201909DF8E3
:103C900004000928C5DB0120014908601CBD0000A3
:103CA0008C0241423A010020900240420000404212
:103CB000000041425007002010B500F00BF800F062
:103CC00009F800F007F8FFF7FDFE00F025F8FFF710
:103CD00027FF10BD10B500200D490860102003F02B
:103CE000A9F90120FFF77AFE4220FFF777FE0020B6
:103CF000FFF774FE0020FFF771FE0020FFF76EFE55
:103D000001200449C1F88C02102003F093F910BD82
:103D10008C0241420000414210B500201249086067
:103D20000120FFF75BFE4420FFF758FE0020FFF75D
:103D300055FE0120FFF752FE0320FFF74FFE002043
:103D4000FFF74CFE0020FFF749FE0020FFF746FE7C
:103D50000020FFF743FE01200449C1F88C02102027
:103D600003F068F910BD00008C024142000041429E
:103D7000014908627047000000000E4270470000D1
:103D80000246501A00EE100AB8EEC00A2C4880ED28
:103D9000000A2C4890ED000A2948D0ED000A30EEC8
:103DA000200A284880ED000A90ED000ADFED260A7F
:103DB000B4EEE00AF1EE10FA03DD9FED240A80ED87
:103DC000000A204890ED000ADFED210AB4EEE00A77
:103DD000F1EE10FA03D29FED1F0A80ED000A1E4893
:103DE00090ED000A9FED1D1AC0EE010A154890EDF6
:103DF000000A20EE800A1A48D0ED000A104890ED23
:103E0000001A00EE810AD0ED000A164890ED001A63
:103E100070EEC10A144890ED001A01EE200A134812
:103E200080ED000A064890ED000A0E4880ED000A79
:103E30000E4890ED000ABDEEC00A10EE100A704761
:103E4000DC010020E40100200050C34700401C4674
:103E50000050C3C700401CC6780000200000C842C4
:103E600074000020E80100207C000020E001002018
:103E70000246501A00EE100AB8EEC00A2C4880ED37
:103E8000000A2C4890ED000A2948D0ED000A30EED7
:103E9000200A284880ED000A90ED000ADFED260A8E
:103EA000B4EEE00AF1EE10FA03DD9FED240A80ED96
:103EB000000A204890ED000ADFED210AB4EEE00A86
:103EC000F1EE10FA03D29FED1F0A80ED000A1E48A2
:103ED00090ED000A9FED1D1AC0EE010A154890ED05
:103EE000000A20EE800A1A48D0ED000A104890ED32
:103EF000001A00EE810AD0ED000A164890ED001A73
:103F000070EEC10A144890ED001A01EE200A134821
:103F100080ED000A064890ED000A0E4880ED000A88
:103F20000E4890ED000ABDEEC00A10EE100A704770
:103F3000EC010020F40100200050C34700401C4663
:103F40000050C3C700401CC6780000200000C842D3
:103F500074000020F80100207C000020F001002007
:103F60000246501A00EE100AB8EEC00A2C4880ED46
:103F7000000A2C4890ED000A2948D0ED000A30EEE6
:103F8000200A284880ED000A90ED000ADFED260A9D
:103F9000B4EEE00AF1EE10FA03DD9FED240A80EDA5
:103FA000000A204890ED000ADFED210AB4EEE00A95
:103FB000F1EE10FA03D29FED1F0A80ED000A1E48B1
:103FC00090ED000A9FED1D1AC0EE010A154890ED14
:103FD000000A20EE800A1A48D0ED000A104890ED41
:103FE000001A00EE810AD0ED000A164890ED001A82
:103FF00070EEC10A144890ED001A01EE200A134831
:1040000080ED000A064890ED000A0E4880ED000A97
:104010000E4890ED000ABDEEC00A10EE100A70477F
:10402000FC010020040200200050C34700401C4651
:104030000050C3C700401CC6780000200000C842E2
:1040400074000020080200207C00002000020020F4
:104050000246501A00EE100AB8EEC00A2C4880ED55
:10406000000A2C4890ED000A2948D0ED000A30EEF5
:10407000200A284880ED000A90ED000ADFED260AAC
:10408000B4EEE00AF1EE10FA03DD9FED240A80EDB4
:10409000000A204890ED000ADFED210AB4EEE00AA4
:1040A000F1EE10FA03D29FED1F0A80ED000A1E48C0
:1040B00090ED000A9FED1D1AC0EE010A154890ED23
:1040C000000A20EE800A1A48D0ED000A104890ED50
:1040D000001A00EE810AD0ED000A164890ED001A91
:1040E00070EEC10A144890ED001A01EE200A134840
:1040F00080ED000A064890ED000A0E4880ED000AA7
:104100000E4890ED000ABDEEC00A10EE100A70478E
:104110000C020020140200200050C34700401C463F
:104120000050C3C700401CC6780000200000C842F1
:1041300074000020180200207C00002010020020E3
:1041400029B1064A12680243044B1A6004E0034A8C
:1041500012688243014B1A607047000030380240F9
:1041600029B1064A12680243044B1A6004E0034A6C
:1041700012688243014B1A607047000040380240C9
:1041800029B1064A12680243044B1A6004E0034A4C
:1041900012688243014B1A607047000044380240A5
:1041A00029B1064A12680243044B1A6004E0034A2C
:1041B00012688243014B1A607047000024380240A5
:1041C000F0B5002100220024022500260223324FF0
:1041D0003F6807F00C0121B1042905D0082937D127
:1041E00005E02E4F076036E02D4F076033E02A4F81
:1041F0003F1F3F68C7F38056274F3F1F3F6807F0B8
:104200003F036EB1264FB7FBF3F7DFF88CC0ACF17C
:10421000040CDCF800C0CCF3881C07FB0CF40CE0A9
:104220001E4FB7FBF3F7DFF870C0ACF1040CDCF8FD
:1042300000C0CCF3881C07FB0CF4174F3F1F3F68EE
:10424000C7F301477F1C7D00B4FBF5F7076002E070
:10425000124F076000BF00BF0F4F3F6807F0F0012B
:104260000909104F7A5C0768D74047600A4F3F68DA
:1042700007F4E051890A0B4F7A5C4768D7408760A2
:10428000054F3F6807F46041490B064F7A5C476869
:10429000D740C760F0BD0000083802400024F40099
:1042A00000127A00A50000200021094A1170117047
:1042B000012802D0042808D103E00121044A11702A
:1042C00004E00521024A117000E000BF00BF704702
:1042D0007038024000B52DED088B89B007A89649CB
:1042E00008AB03AACDE900109449954803F070F893
:1042F0009148008800F4807000287DD09DED030A6D
:10430000B8EEC00ADFED8F0A80EE201A8E4880EDED
:10431000001A9DED040AB8EEC00ADFED8A0A80EEAD
:10432000201A8A4880ED001A9DED050AB8EEC00AF1
:10433000DFED840A80EE201A854880ED001A9DED9D
:10434000060AB8EEC00ADFED7F0A80EE201A814827
:1043500080ED001A7D4890ED000AF8EE000A20EE8C
:10436000200A7C48D0ED000A20EE200A7648D0EDE5
:10437000000AB0EE001A60EE810A754890ED001A4E
:1043800000EE810A10EE101A084606F04FFC41ECD0
:104390001A0BB0EE4A0AF0EE6A0A01F095F9B0EE97
:1043A000409AF0EE609A9FED6C0B53EC102B51ECA1
:1043B000190B06F045F941EC180B05F029FE684988
:1043C0000860624890ED000AF8EE000A20EE200A2C
:1043D000D0ED000A20EE200A5D48D0ED000AB0EED4
:1043E000001A60EE810A90ED001A00EEC10AF7EEA5
:1043F000000A30EE200A00E099E010EE101A08469C
:1044000006F014FC41EC1A0B514890ED000AF0EE56
:10441000000A20EE200A4F48D0ED000A20EE200AC4
:104420004948D0ED000AB0EE001A60EE810A474814
:1044300090ED001A00EE810A10EE101A084606F000
:10444000F5FB41EC1B0BB0EE4A1AF0EE6A1AB0EE27
:104450004B0AF0EE6B0A01F053FCB0EE409AF0EE1E
:10446000609A9FED3D0B53EC102B51EC190B06F0AD
:10447000E7F841EC180B05F0CBFD3A4908603248EB
:1044800090ED000A20EE000A3048D0ED000A90EDD1
:10449000001A00EE810A2E48D0ED000A90ED001AB5
:1044A00000EEC10A2B48D0ED000A90ED001A00EE94
:1044B000C10A10EE101A084606F0B8FB41EC1A0BC0
:1044C000224890ED000A2248D0ED000A20EE200A92
:1044D0001D48D0ED000A1F4890ED001A00EE810A39
:1044E000F0EE000A20EE200A10EE101A084606F040
:1044F0009DFB41EC1B0BB0EE4A1AF0EE6A1AB0EECF
:104500004B0AF0EE6B0A01F0FBFBB0EE409AF0EEC6
:10451000609A9FED110B53EC102B51EC190B06F028
:104520008FF841EC180B05F073FD0F49086009B0D6
:10453000BDEC088B00BD0000F0000020EA00002068
:10454000E40000200000804EF4000020F80000206D
:10455000FC000020000100206666666666A64C40EE
:1045600004010020080100200C010020014602295E
:1045700006D003290DD0042912D005291ED116E03A
:104580004FF08042526A10B200224FF080435A62CC
:1045900016E00C4A126810B200220A4B1A600FE0B3
:1045A000094A126810B20022074B1A6008E0074A55
:1045B000126810B20022054B1A6001E0002000BF13
:1045C00000BF70472404004024080040240C004031
:1045D0007047000030B500228B071C0F0F2303FA31
:1045E00004F20B4B8C1053F824309343084C8D107D
:1045F00044F8253023468C1053F824308C07240FC0
:1046000000FA04F42343024C8D1044F8253030BDE9
:10461000083801400CB50020019000903448006833
:1046200040F480303249086000BF3148006800F42F
:10463000003000900198401C0190009818B9019832
:10464000B0F5A04FF1D12A48006800F4003010B155
:104650000120009001E0002000900098012846D140
:1046600023484030006840F08050214940310860C4
:104670002048006840F440401E4908601C4808304B
:1046800000681B49083108600846006840F4004093
:1046900008600846006840F4A05008601648091FEA
:1046A0000860081F006840F08070091F086000BFA4
:1046B0000F48006800F000700028F9D040F2057043
:1046C0000E4908600A480830006820F003000849D5
:1046D000083108600846006840F00200086000BF2A
:1046E00003480830006800F00C000828F8D10CBD21
:1046F000003802400070004008544007003C02406F
:1047000030B5002805DD254C20600024244D2C60A8
:1047100007E042F2D0040444204D2C600124204DD7
:104720002C60002909DD42F2D004641A1B4D2D1DB6
:104730002C6001241B4D2C6006E04C42174D2D1DB2
:104740002C600024174D2C60002A0ADD42F2D004B0
:10475000A41A124D08352C600124114D2D1D2C601A
:1047600007E054420D4D08352C6000240C4D2D1DE2
:104770002C60002B07DD094C0C3423600024094D0C
:104780002D1D2C6009E042F2D0041C44034D0C3571
:104790002C600124034D2D1D2C6030BD34040140DC
:1047A0009002414280824042042808D14FF0E0212B
:1047B000096941F004014FF0E022116107E04FF078
:1047C000E021096921F004014FF0E02211617047F6
:1047D0007047000010B51548006840F47000134998
:1047E00008601348006840F001001149086000208B
:1047F0000F49083108600E4800680E4908400C490E
:1048000008600D48091D0860081F006820F480201A
:10481000091F0860002006490C310860FFF7FAFE06
:104820004FF0006001498039086010BD88ED00E05C
:1048300000380240FFFFF6FE10300024F0B50C46B1
:10484000154600210022068C4FF6FE773E40068476
:10485000018B028C4FF60C7631407E1C06EA031663
:104860002E4331434FF6F576324044F00106324391
:1048700001830284F0BDF0B50C46154600210022EC
:104880000026078C4FF6EF7C07EA0C070784018BA4
:10489000028C4FF6FF7707EA041640F6FF473940CF
:1048A0004FF6FF7707EA033739434FF6FF7707EAFA
:1048B000052739434FF65F773A4046F010073A43F1
:1048C00001830284F0BDF0B50C461546002100229C
:1048D0000026078C4FF6FF6C07EA0C070784818BD4
:1048E000028C4FF6FF7707EA04264FF60C77394023
:1048F0004FF6FF7707EA03172F4339434FF2FF576D
:104900003A4046F480773A4381830284F0BDF0B5A3
:104910000C461546002100220026078C4EF6FF7C2F
:1049200007EA0C070784818B028C4FF6FF7707EAB2
:10493000043640F6FF4739404FF6FF7707EA052770
:1049400039434FF6FF7707EA0337394345F6FF77D8
:104950003A4046F480573A4381830284F0BD4FF0D9
:104960008040008A4FF08040008A20F001004FF024
:10497000804108827047000004480088034800888E
:1049800020F0010001490880704700001004004039
:10499000044800880348008820F00100014908808D
:1049A0007047000010080040044800880348008851
:1049B00020F001000149088070470000100C004001
:1049C00021B1028842F08002028004E002884FF6A2
:1049D0007F731A4002807047CA430282704721B138
:1049E000028842F00102028004E002884FF6FE7362
:1049F0001A400280704731B1B0F8442042F40042BE
:104A0000A0F8442005E0B0F84420C2F30E02A0F85C
:104A100044207047F0B50C4615461E460021002282
:104A200000230189028B038C4FF6F877394021432C
:104A30004FF6FC473A4040F201173A434FF6DD7714
:104A40003B404FF6FF7707EA06172F433B430181B0
:104A500002830384F0BD70B505460C46208850B92A
:104A60002389A28861882846FFF7E8FEE188284666
:104A700000F087F925E0208804280AD12389A2883C
:104A800061882846FFF7F7FEE188284600F082F9A2
:104A900017E0208808280AD12389A288618828463F
:104AA000FFF711FFE188284600F081F909E023892A
:104AB000A28861882846FFF72AFFE188284600F08F
:104AC0007FF970BD0021018041800121818000219A
:104AD000C180018170471AB183890B43838102E051
:104AE00083898B438381704770B5002400220023A3
:104AF000058C4FF6FE7635400584028C8388048B46
:104B00004FF68F752C40B51E2C400D882C43751E1A
:104B10002A408D892A434D882A43104DA84202D04D
:104B20000F4DA84213D14FF6F7752A40CD892A437D
:104B30004FF6FB752A408D882A434FF6FF652B40C0
:104B40004FF6FF552B400D8A2B434D8A2B43838014
:104B500004838D684563028470BD0000000001403D
:104B6000000401400A460021018B4FF6F7731940FB
:104B7000114301837047000070B500240022002318
:104B8000058C4FF6EF7635400584028C8388048BC4
:104B900048F6FF752C404FF6FF452C400D884FF628
:104BA000FF7606EA05252C434FF6DF752A408D89EE
:104BB00006EA05152A434D8806EA05152A43154DD0
:104BC000A84202D0144DA8421DD14FF67F752A404D
:104BD000CD894FF6FF7606EA05152A434FF6BF75D5
:104BE0002A408D8806EA05152A434FF6FF352B40EB
:104BF0004FF2FF752B400D8A06EA85052B434D8A3F
:104C000006EA85052B43838004838D6885630284CF
:104C100070BD000000000140000401400A46002170
:104C2000018B4FF2FF7319404FF6FF7303EA022323
:104C3000194301837047000070B50024002200234F
:104C4000058C4FF6FF6635400584028C8388848B83
:104C50004FF68F752C404FF6FC752C400D882C4379
:104C60004FF6FF552A408D894FF6FF7606EA052557
:104C70002A434D8806EA05252A43154DA84202D04D
:104C8000144DA8421DD14FF2FF752A40CD894FF631
:104C9000FF7606EA05252A434FF6FF352A408D8820
:104CA00006EA05252A434EF6FF752B404DF6FF75A3
:104CB0002B400D8A06EA05152B434D8A06EA051599
:104CC0002B43838084838D68C563028470BD00009C
:104CD00000000140000401400A460021818B4FF68C
:104CE000F7731940114381837047000070B50022AB
:104CF00000230024058C4EF6FF7635400584038C96
:104D00008488828B48F6FF752A404FF6FF452A407B
:104D10000D884FF6FF7606EA05252A434DF6FF7506
:104D20002B408D8906EA05352B434D8806EA05356B
:104D30002B430A4DA84202D0094DA84208D14BF698
:104D4000FF752C400D8A4FF6FF7606EA85152C4339
:104D5000848082838D680564038470BD00000140F7
:104D6000000401400A460021818B4FF2FF73194075
:104D70004FF6FF7303EA02231943818370474162B0
:104D80007047028B4FF6F3731A400283028B0A437B
:104D900002837047028B4FF2FF331A400283028B6B
:104DA0004FF6FF7303EA01231A4302837047828B95
:104DB0004FF6F3731A408283828B0A4382837047D3
:104DC000828B4FF2FF331A408283828B4FF6FF7340
:104DD00003EA01231A4382837047000000220288FD
:104DE000184B98420ED0184B98420BD0B0F1804F20
:104DF00008D0164B984205D0154B984202D0154B5F
:104E0000984204D14FF68F731A404B881A43124BC5
:104E1000984207D0114B984204D04FF6FF431A40F6
:104E20000B891A4302804B68C3620B880385054BCC
:104E3000984202D0044B984201D18B7A0386012319
:104E400083827047000001400004014000040040DC
:104E500000080040000C004000100040001400401A
:104E60004FF0FF314160002101800181418081725A
:104E700070470000014640F25642914215DA012087
:104E800000220B4B1A601B1D1A601B1D1A601B1D94
:104E90001A60084B1A60084BC3F88022054B1B1D93
:104EA0001A60054BC3F8842200E000207047000020
:104EB00034040140900241420080404210B540F26B
:104EC00025511D4800F0A2FA10B31B4800F058FB12
:104ED000C4B21A48008800F40040C8B917480088D6
:104EE00000F4804060B10A2C03D0002013490880F0
:104EF00020E01248008840F400401049088019E082
:104F00000D2C06D10D48008840F480400B490880E4
:104F100010E00A480088C0F30D0009490C54074806
:104F20000088401C0549088008460088C72801DD24
:104F30000020088010BD00000010014098000020F3
:104F40004C02002010B52DED0C8B40F22551A248EB
:104F500000F05CFA00287DD09F48001D00889F4922
:104F60000870084600784B2803D101209C4908703E
:104F70000AE09A480078492803D0984800784A28DF
:104F800002D10020964908709648007800284DD13B
:104F900093480078D0B991480078412809DB8F48C0
:104FA0000078482805DC8D48007840388E49087024
:104FB0003CE08A480078082804DC884800788A4960
:104FC000087033E00020884908702FE0844800789A
:104FD00001282BD181480078432806D1002083493D
:104FE00008700120824908700FE07C48007847284B
:104FF00006D101207D49087000207D49087004E039
:1050000000207A4908707A4908707448007841286D
:1050100003D072480078452805D1704800784038A0
:105020007149087002E000206F4908706B480078F1
:105030007B2802D101206F490870684800787D28DC
:1050400002D102206B4908706A48007801280CD10F
:10505000624800E083E000786749684A1278885423
:1050600066480078401C654908706248007802284C
:1050700075D16148C078502803D10120604908707B
:1050800095E05D48C078572803D101205D4908703C
:105090008DE059484078232870D0584800785A4904
:1050A00008703AE055490978574A1278881A05F08D
:1050B00060FA41EC1D0BB0EE4D1AF0EE6D1A9FED4B
:1050C000530B00F015FFB0EE40BAF0EE60BA4E4957
:1050D0000978491E484A515CA1F1300005F049FAAF
:1050E00041EC1C0B53EC1B2B05F0AAFA41EC190BFD
:1050F0004848006805F09AFD41EC1A0B53EC192B57
:1051000004F0B8FF41EC180B04F082FF414908603D
:105110003D480078401E3C4908703B480078042810
:10512000C0DA35484078303809283FD2DFE800F04F
:10513000050E181F272E353C3D00364890ED000A1D
:10514000BDEEC00A344880ED000A2FE0314890EDF2
:10515000000ABDEEC00A314880ED000A26E036E0C4
:105160002C4890ED000A2E4880ED000A1EE02948E8
:1051700090ED000A2B4880ED000A17E017E0254863
:1051800090ED000A284880ED000A0FE0214890EDDC
:10519000000A264880ED000A08E01E4890ED000A4B
:1051A000234880ED000A01E000E000BF00BF0020BE
:1051B0001049087011490870134908709FED1D0AC5
:1051C000144880ED000A32210B48FBF747F9002014
:1051D000BDEC0C8B10BD0000004400409B00002083
:1051E0006500002062000020020000200000002076
:1051F000010000209C0000201E0300209D000020D4
:105200009A000020640000209E00002000000000A2
:1052100000002440A0000020880000208C00002016
:1052200074000020780000207C0000208000002016
:10523000840000200000000010B540F225512248F3
:1052400000F0E4F800283DD02049097851B9204900
:105250000978491CC9B21E4A11700A2902DD0121D0
:105260001A4A11701849091D0988C8B219490978E4
:1052700069B919490978FE2909D118490978FF291E
:1052800005D10121134A11700021154A11701149ED
:10529000097801290FD11349114A1278885410490D
:1052A0000978491C0E4A117011460978082902D163
:1052B0000021084A117008490978084A1170064906
:1052C000087000BF10BD0000004800405C010020D5
:1052D0006A0100205D0100206801002069010020B2
:1052E000670100205F010020F0B53D4800680028FC
:1052F00001DD002206E03A480068002801DA0222B7
:1053000000E0012237480068002801DD002306E0A4
:1053100034480068002801DA022300E00123324803
:105320000068002801DD002406E02F4800680028FE
:1053300001DA022400E001242C480068002801DD85
:10534000002506E029480068002801DA022500E06F
:1053500001252748808800F5004086B2FF2004F030
:105360003DFEFE2004F03AFE1D490F68002F01DBD0
:10537000394600E07942C8B204F030FE104604F02D
:105380002DFE18490F68002F01DB394600E07942F5
:10539000C8B204F023FE184604F020FE12490F683C
:1053A000002F01DB394600E07942C8B204F016FE56
:1053B000204604F013FE0D490F68002F01DB39462B
:1053C00000E07942C8B204F009FE284604F006FE67
:1053D000301204F003FEF0B204F000FEF0BD000055
:1053E000080000200C000020100000201400002005
:1053F000E400002021B1828942F40052828104E05D
:1054000082894DF6FF731A408281704770B502465B
:10541000002400230025002040F66A16B14200D186
:1054200000BFC1F3421501F01F03012606FA03F382
:10543000012D02D19689334006E0022D02D1168A51
:10544000334001E0968A33400C12012606FA04F438
:105450001688344013B10CB1012000E0002070BD6B
:10546000F0B50346002400260025002040F66A1708
:10547000B94200D100BF1846C1F3421401F01F0623
:10548000012707FA06F5012C01D10C3004E0022CAB
:1054900001D1103000E014301AB107682F430760C3
:1054A00002E00768AF430760F0BD00002DE9FF4749
:1054B00005460E460024A14600BFA046B08900B1B3
:1054C00000BF2C8A24F44054F08804432C82AC8919
:1054D00041F20C608443B0883189084371890843E4
:1054E0000443AC81AC8A24F44074B0890443AC8298
:1054F0006846FEF765FE2048854202D01F48854277
:1055000002D1DDF80C9001E0DDF80890A88900F4E4
:10551000004040B109EBC90000EB091031684900B7
:10552000B0FBF1F707E009EBC90000EB09103168A7
:105530008900B0FBF1F76420B7FBF0F0040120090B
:10554000642101FB1078A88900F4004040B13220AA
:1055500000EBC800B0FBF1F000F00700044308E0E6
:10556000322000EB08106421B0FBF1F000F00F00D6
:1055700004432C81BDE8FF87001001400014014066
:1055800001468888C0F30800704700BFFEE70000AE
:105590001C4909684242914202DA4142194A1160AB
:1055A00018490968814201DD1649086016490968F1
:1055B0004242914202DA4142134A1160124909689B
:1055C000814201DD10490860104909684242914258
:1055D00002DA41420D4A11600C490968814201DD3D
:1055E0000A4908600A4909684242914202DA414286
:1055F000074A116006490968814201DD04490860D3
:1056000070470000380000203C00002040000020CF
:105610004400002030B51C4C24684542AC4202DAFC
:105620004442194D2C60184C2468844201DD164C0C
:105630002060164C24684D42AC4202DA4C42134DB5
:105640002C60124C24688C4201DD104C2160104CFF
:1056500024685542AC4202DA54420D4D2C600C4C89
:105660002468944201DD0A4C22600A4C24685D42A1
:10567000AC4202DA5C42074D2C60064C24689C4226
:1056800001DD044C236030BD380000203C000020C8
:10569000400000204400002003B40198410000981D
:1056A00050EAC12018BF04204A0D18BF40F0010085
:1056B00040F2FF72B2EB515F08BF40F002000128D8
:1056C00008BF052002B0704770B5C1482DED020B30
:1056D0002DED0E8B82B0119D25F000449FEDBEDBB9
:1056E0009FEDBFEB84423EDBA4F140511098A1F145
:1056F0007F6108430FD0BC48844202DC28D1109857
:1057000030B39DED100B02B0BDEC0E8B02B0BDE8C6
:10571000704001F0DDBA9DED100B53EC1D2B51ECE8
:10572000100B04F08DFF9DED100B41EC180B53ECAA
:105730001E2B51EC100B04F083FF53EC182B04F0DC
:1057400099FC41EC100B02B0BDEC0E8B02B070BDA9
:105750000120FAF725FF02B0BDEC0E8B02B0BDE8C8
:10576000704001F0C9BAA1489FEDA18B844256DA7E
:105770009DED100BB4F1795F0ADA51EC100BFFF7D5
:105780008BFF042808BF01F0D7FA9DED100BDAE774
:1057900053EC102B51EC100B04F052FF41EC190BA1
:1057A00095480621B0EE490AF0EE690A784401F006
:1057B000F8F953EC192B51EC100B04F041FF41ECBC
:1057C0001A0B8E48B0EE490AF0EE690A04217844BB
:1057D00001F0E7F953EC192B51EC100B04F030FFFA
:1057E00053EC182B04F046FC41EC100B51EC1A0B57
:1057F00053EC102B04F0FAFCCDE900019DED000BF9
:1058000053EC102B9DED100B51EC100B04F018FF16
:105810009DED101B53EC112B04F02CFCD2E09DED00
:10582000100B51EC100B02F03BFA53EC182B05F067
:105830003BF89FED730BCDE9000153EC102B9DED70
:10584000000B51EC100B04F0FBFE41EC190B6E4801
:105850000621B0EE490AF0EE690A784401F0A1F998
:1058600053EC192B51EC100B04F0EAFE41EC1B0B2E
:105870006648B0EE490AF0EE690A0421784401F066
:1058800090F953EC192B51EC100B04F0D9FE53ECAA
:10589000182B04F0EFFB41EC1C0B51EC190B04F03E
:1058A00061FA41EC180B5A489FED5BABA04222DC39
:1058B00053EC1C2B51EC1B0B04F098FCCDE90001C0
:1058C0009DED000B51EC180B53EC102B04F0B8FEBF
:1058D00053EC182B04F0CEFB53EC1A2B04F0B0FE63
:1058E00053EC1D2B05F0B8F853EC1E2B04F0DCFF35
:1058F00041EC100B5FE08DED008B002000909DEDE2
:10590000000B51EC180B53EC102B04F0B3FB9DED86
:10591000000B41EC1E0B53EC102B51EC100B04F060
:105920008FFE53EC192B04F0BFFF53EC1E2B04F039
:105930005DFC41EC190B53EC1C2B51EC1B0B04F0E0
:1059400055FC41EC1B0B53EC1A2B51EC190B04F0DA
:1059500077FE53EC1D2B04F0A7FF41EC190B53EC21
:105960001A2B51EC180B04F06BFE53EC1B2B04F0BC
:1059700067FE53EC192B05F06FF89DED000B41EC21
:10598000180B53EC1A2B51EC100B04F059FE9FED41
:10599000249B53EC192B04F087FF41EC100B51ECC6
:1059A000180B53EC102B05F057F853EC192B04F09F
:1059B0007BFF41EC100B002D3FF7C5AE51EC100BF7
:1059C00004F01AFB41EC100BBDE6000000000000E3
:1059D0000000F03F00000000075C143326A6913C55
:1059E000182D4454FB21F93F0000F07F0000E03FF8
:1059F000000000000000F03F106D00001E6D000070
:105A0000000000000000E03F626C0000706C0000CD
:105A10003333EF3F000000000000000000000040B2
:105A2000182D4454FB21E93F70B59B482DED020B26
:105A30002DED068B079D25F00044A04218DC974809
:105A4000844202DC0AD1069840B19DED060BBDEC04
:105A5000068B02B0BDE8704001F03AB9002DCCBF12
:105A60009FED8F0B9FED900BBDEC068B02B070BDD0
:105A70008F48A04215DD8F48A042D8BF4FF0FF34B9
:105A800058DD9DED060B51EC100BFFF705FE0428C9
:105A900008BF01F051F99DED060BBDEC068B02B07D
:105AA00070BD9DED060B51EC100B02F0F9F8CDE93D
:105AB000060181489FED828BA0423CDD8248A042D6
:105AC0001FDD00249FED82AB9DED060B53EC1A2BDE
:105AD00051EC100B04F0CEFA9DED060B41EC190BC6
